:020000040800F2
:1000000000800020C904000869030008710300088B
:10001000790300088103000889030008000000003C
:100020000000000000000000000000009103000834
:100030009F03000800000000AD030008BB03000898
:100040001905000819050008190500081905000818
:100050001905000819050008190500081905000808
:1000600019050008190500081905000819050008F8
:1000700019050008190500081905000819050008E8
:1000800019050008000000001905000819050008FE
:10009000C90300081905000819050008190500081A
:1000A00019050008190500081905000819050008B8
:1000B00019050008190500081905000819050008A8
:1000C0001905000819050008190500081905000898
:1000D0001905000819050008190500081905000888
:1000E0001905000819050008190500081905000878
:1000F000190500081905000819050008000000008E
:1001000000000000190500080000000019050008A3
:10011000190500080000000019050008190500086D
:100120001905000819050008190500081905000837
:100130001905000800000000000000001905000873
:100140001905000819050008000000000000000063
:10015000000000000000000000000000000000009F
:100160000000000000000000000000001905000869
:100170001905000800000000000000000000000059
:100180000000000019050008000000000000000049
:10019000000000000000000000000000000000005F
:1001A0000000000000000000190500081905000803
:1001B00019050008190500081905000800000000CD
:1001C0000000000019050008000000000000000009
:0801D0001905000819050008DB
:1001D80010B5054C237833B9044B13B10448AFF379
:1001E80000800123237010BD0C00002000000000D7
:1001F800B83B000808B5034B1BB103490348AFF3EC
:10020800008008BD0000000010000020B83B000876
:1002180080B483B000AF0F4BDB6C0E4A43F0200371
:10022800D3640C4BDB6C03F020037B607B68094BC9
:10023800DB6C084A43F00103D364064BDB6C03F024
:1002480001033B603B6800BF0C37BD465DF8047B8B
:10025800704700BF0010024080B500AF00F059F9A8
:1002680000F006F8FFF7D4FF00F0C6F800BFFDE77E
:1002780080B594B000AF07F1180338220021184662
:1002880003F069FC3B1D00221A605A609A60DA602C
:100298001A61002001F02AFE2223BB614FF480730B
:1002A8007B624023BB6201233B6302237B630223FF
:1002B800BB630423FB6355233B6402237B64042351
:1002C800BB640223FB6407F11803184601F0C2FE61
:1002D8000346002B01D000F018F80F237B6003239E
:1002E800BB600023FB6000233B6100237B613B1D57
:1002F8000421184602F0C0F90346002B01D000F093
:1003080004F800BF5037BD4680BD80B400AF72B658
:1003180000BF00BFFDE7000080B582B000AF0F4B03
:100328001B6E0E4A43F0010313660C4B1B6E03F061
:1003380001037B607B68094B9B6D084A43F080533F
:100348009365064B9B6D03F080533B603B6801F05F
:1003580071FE00BF0837BD4680BD00BF00100240D7
:1003680080B400AF00BFFDE780B400AF00BFFDE779
:1003780080B400AF00BFFDE780B400AF00BFFDE769
:1003880080B400AF00BFFDE780B400AF00BFBD463A
:100398005DF8047B704780B400AF00BFBD465DF8D0
:1003A800047B704780B400AF00BFBD465DF8047B96
:1003B800704780B500AF00F0FFF800BF80BD0000B7
:1003C80080B500AF024800F0F2FA00BF80BD00BF60
:1003D8002800002080B400AF064BD3F88830054AC7
:1003E80043F47003C2F8883000BFBD465DF8047B53
:1003F800704700BF00ED00E080B500AF104B114A18
:100408001A600F4B08221A710D4B02225A710C4BBD
:100418000222DA710A4B00221A72094B00225A7220
:10042800074B00229A72064B0022DA72044800F049
:10043800F0F90346002B01D0FFF767FF00BF80BD2E
:1004480028000020005C004080B594B000AF7860C0
:1004580007F10C0344220021184603F07CFB7B685B
:100468001B68154A934222D14FF40053FB600023C6
:100478003B6407F10C03184602F0E2FA0346002B2E
:1004880001D0FFF742FF0D4B9B6D0C4A43F400036C
:1004980093650A4B9B6D03F40003BB60BB680022A5
:1004A8000021142000F081F9142000F098F900BF11
:1004B8005037BD4680BD00BF005C004000100240C0
:1004C8000D488546FFF786FF0C480D490D4A002365
:1004D80002E0D458C4500433C4188C42F9D30A4AF1
:1004E8000A4C002301E013600432A242FBD303F05C
:1004F8003BFBFFF7B1FEFEE7008000200000002074
:100508000C000020E83B00080C0000200803002035
:10051800FEE780B582B000AF0023FB71032000F036
:1005280039F90F2000F00EF80346002B02D0012302
:10053800FB7101E0FFF7F0FEFB7918460837BD466E
:1005480080BD000080B584B000AF78600023FB73E5
:10055800164B1B68002B22D0154B1A68134B1B68CF
:100568004FF47A71B1FBF3F3B2FBF3F3184600F0E2
:1005780044F90346002B0FD17B680F2B09D80022C2
:1005880079684FF0FF3000F010F90A4A7B68136071
:1005980007E00123FB7304E00123FB7301E001235F
:1005A800FB73FB7B18461037BD4680BD0800002052
:1005B800000000200400002080B400AF054B1A683A
:1005C800054B1B681344034A136000BFBD465DF822
:1005D800047B7047040300200800002080B400AFAB
:1005E800034B1B681846BD465DF8047B704700BF87
:1005F8000403002080B485B000AF78607B6803F006
:100608000703FB600C4BDB68BB60BA684FF6FF035F
:100618001340BB60FB681A02BB68134343F0BF6317
:1006280043F40033BB60044ABB68D36000BF14378F
:10063800BD465DF8047B704700ED00E080B400AF74
:10064800044BDB681B0A03F007031846BD465DF838
:10065800047B704700ED00E080B483B000AF034630
:10066800FB7197F90730002B0BDBFB7903F01F02B6
:10067800074997F907305B09012000FA02F241F8AF
:10068800232000BF0C37BD465DF8047B704700BFD0
:1006980000E100E080B483B000AF03463960FB712D
:1006A80097F90730002B0ADB3B68DAB20C4997F957
:1006B80007301201D2B20B4483F800230AE03B68EA
:1006C800DAB20849FB7903F00F03043B1201D2B2F6
:1006D8000B441A7600BF0C37BD465DF8047B7047A3
:1006E80000E100E000ED00E080B489B000AFF86000
:1006F800B9607A60FB6803F00703FB61FB69C3F12B
:100708000703042B28BF0423BB61FB690433062BB2
:1007180002D9FB69033B00E000237B614FF0FF3205
:10072800BB6902FA03F3DA43BB681A407B699A4053
:100738004FF0FF317B6901FA03F3D9437B680B4023
:10074800134318462437BD465DF8047B7047000004
:1007580080B582B000AF78607B68013BB3F1807FE1
:1007680001D301230FE00A4A7B68013B53600F2144
:100778004FF0FF30FFF78EFF054B00229A60044BC5
:1007880007221A60002318460837BD4680BD00BFFF
:1007980010E000E080B582B000AF78607868FFF7BD
:1007A80029FF00BF0837BD4680BD80B586B000AFC1
:1007B8000346B9607A60FB73FFF740FF78617A6897
:1007C800B9687869FFF790FF024697F90F3011462C
:1007D8001846FFF75FFF00BF1837BD4680BD80B5DC
:1007E80082B000AF0346FB7197F907301846FFF750
:1007F80033FF00BF0837BD4680BD80B582B000AF6B
:1008080078607868FFF7A4FF034618460837BD46A6
:1008180080BD80B584B000AF78607B68002B01D1C3
:100828000123C0E07B6893F89132DBB2002B06D13C
:100838007B68002283F890227868FFF705FE7B68C2
:10084800032283F891227B681B68184602F0E8FAB5
:100858000023FB733EE0FA7B796813469B00134440
:10086800DB000B44113301221A70FA7B79681346B6
:100878009B001344DB000B441033FA7B1A70FA7B9D
:10088800796813469B001344DB000B4413330022A2
:100898001A70FA7B796813469B001344DB000B44FB
:1008A800203300221A60FA7B796813469B001344B0
:1008B800DB000B44243300221A60FB7B79685A1C46
:1008C80013469B001344DB000B4400221A60FB7B99
:1008D8000133FB737B681B79FA7B9A42BBD30023F5
:1008E800FB7344E0FA7B796813469B001344DB00F2
:1008F8000B4403F2511300221A70FA7B79681346ED
:100908009B001344DB000B4403F5A873FA7B1A70B1
:10091800FA7B796813469B001344DB000B4403F20F
:10092800531300221A70FA7B796813469B0013440C
:10093800DB000B4403F5B07300221A60FA7B796878
:1009480013469B001344DB000B4403F5B2730022EB
:100958001A60FA7B796813469B001344DB000B444A
:1009680003F5B47300221A60FB7B0133FB737B68C9
:100978001B79FA7B9A42B5D37B6818687B68043385
:1009880093E8060002F067FA7B6800221A737B6816
:10099800012283F891227B689B7A012B02D1786827
:1009A80001F06DFA002318461037BD4680BD80B5AA
:1009B80084B000AF78607B681B68184603F02CF899
:1009C800F860FB6803F40043002B03D0786800F05C
:1009D80083F910E1FB6803F48063002B13D07B6874
:1009E8001B68B3F844309AB27B681B6822F48062B3
:1009F80092B2A3F84420786800F02CF900217868B6
:100A080000F046F9F7E0FB6803F48043002B0CD0B4
:100A18007B681B68B3F844309AB27B681B6822F481
:100A2800804292B2A3F84420E5E0FB6803F4005347
:100A3800002B0CD07B681B68B3F844309AB27B68F3
:100A48001B6822F4005292B2A3F84420D3E0FB685A
:100A580003F48053002B34D07B681B68B3F8403014
:100A68009AB27B681B6822F0040292B2A3F8402075
:100A78007B681B68B3F840309AB27B681B6822F029
:100A8800080292B2A3F840207B6893F8C832012B81
:100A980007D17B68002283F8C8220021786801F01A
:100AA80018FA786800F0EAF87B681B68B3F84430F5
:100AB8009AB27B681B6822F4805292B2A3F8442051
:100AC80099E0FB6803F40063002B27D07B681B6860
:100AD800B3F840309AB27B681B6842F0080292B2C1
:100AE800A3F840207B681B68B3F844309AB27B684F
:100AF8001B6822F4006292B2A3F844207B681B684A
:100B0800B3F840309AB27B681B6842F0040292B294
:100B1800A3F84020786800F0A7F86CE0FB6803F0C1
:100B28008003002B40D07B681B68B3F844309AB22E
:100B38007B681B6822F0800292B2A3F844207B688D
:100B480093F8C832002B2BD17B681B68B3F8403070
:100B58009AB27B681B6842F0040292B2A3F8402064
:100B68007B681B68B3F840309AB27B681B6842F018
:100B7800080292B2A3F840207B68012283F8C822B9
:100B88007B681B68B3F854309BB29B0803F03C02A7
:100B98007B68C3F8CC220121786801F09AF92AE031
:100BA800786800F061F826E0FB6803F40073002B16
:100BB8000FD07B681B68B3F844309AB27B681B6817
:100BC80022F4007292B2A3F84420786800F038F852
:100BD80011E0FB6803F48073002B0CD07B681B6862
:100BE800B3F844309AB27B681B6822F4807292B2E0
:100BF800A3F8442000BF1037BD4680BD80B483B041
:100C080000AF78600B46FB7000BF0C37BD465DF83F
:100C1800047B704780B483B000AF78600B46FB70EC
:100C280000BF0C37BD465DF8047B704780B483B0C5
:100C380000AF786000BF0C37BD465DF8047B704795
:100C480080B483B000AF786000BF0C37BD465DF854
:100C5800047B704780B483B000AF786000BF0C3766
:100C6800BD465DF8047B704780B483B000AF786000
:100C780000BF0C37BD465DF8047B704780B483B075
:100C880000AF786000BF0C37BD465DF8047B704745
:100C980080B582B000AF78600B46FB707B6893F834
:100CA8009032012B01D1022312E07B68012283F8E4
:100CB80090227B68FA781A737B681B68FA78114669
:100CC800184602F095FE7B68002283F890220023E4
:100CD80018460837BD4680BD80B594B000AF78602F
:100CE8007AE37B681B68B3F84430A7F84230B7F85A
:100CF8004230DBB203F00F0387F8413097F84130F8
:100D0800072B01D9012371E397F84130002B40F0FC
:100D18004381B7F8423003F01003002B4CD17B68B5
:100D28001B681B889BB223F4E14323F070037B818B
:100D38007B681A687B896FEA43436FEA53439BB227
:100D480013807B681033BB647B681B68B3F8503032
:100D58009BB21A46BB6C1B78DB0013447A68126896
:100D6800134403F202431B88C3F30902BB6CDA6124
:100D7800BB6C5A69BB6CDB691A44BB6C5A610021B5
:100D88007868FFF747FF7B681B7BDBB2002B00F01E
:100D98002383BB6C9B69002B40F01E837B681B7B05
:100DA800DBB263F07F03DAB27B681B68A3F84C20E0
:100DB8007B6800221A730FE37B6803F5A873BB6492
:100DC8007B681B681B88FB87FB8F03F40063002B81
:100DD8007BD07B681B68B3F850309BB21A46BB6C5B
:100DE8001B78DB0013447A681268134403F2064345
:100DF8001B88C3F30902BB6CDA61BB6CDB69082B87
:100E080044D07B681B681B889BB223F4804323F083
:100E180070033B823B8A83F480533B827B681A6869
:100E28003B8A43F07F4343F47F0343F4004343F09A
:100E380080039BB213807B681B681B889BB223F4DA
:100E4800E04323F04003FB81FB8983F01003FB811F
:100E58007B681A68FB8943F07F4343F47F0343F4BC
:100E6800004343F080039BB213807B681B681B8898
:100E78009AB240F68F731340BB817B681B68BA89AE
:100E880042F0800292B21A800023AFE27B681868B1
:100E98007B6803F52671BB6CDA88BB6CDB699BB297
:100EA80002F00DFE7B681B681B889AB240F68F73B0
:100EB80013407B827B681B687A8A42F0800292B278
:100EC8001A807868FFF7B2FE86E2B7F93E30002B49
:100ED80080F282827B681B681B889AB240F68F7307
:100EE8001340FB827B681B68FA8A42F0800292B248
:100EF8001A807B681B68B3F850309BB21A46BB6CEB
:100F08001B78DB0013447A681268134403F2064323
:100F18001B88C3F30902BB6CDA61BB6CDB69002B6D
:100F28001ED17B681B681B889BB223F4804323F087
:100F38007003BB82BB8A83F48053BB82BB8A83F471
:100F48000053BB827B681A68BB8A43F07F4343F433
:100F58007F0343F4004343F080039BB213803BE2DA
:100F6800BB6C5B69002B00F037827B681868BB6C30
:100F78005969BB6CDA88BB6CDB699BB202F09FFDD8
:100F8800BB6C5A69BB6CDB691A44BB6C5A610021A3
:100F98007868FFF733FE1FE27B681B681A4697F8EC
:100FA80041309B0013441B88FB87B7F93E30002B68
:100FB80080F2F5807B681B681A4697F841309B00E1
:100FC80013441B889AB240F68F731340A7F8463033
:100FD8007B681B681A4697F841309B001344B7F8A2
:100FE800462042F0800292B21A8097F841201346B8
:100FF8009B001344DB0003F5A8737A681344BB64B1
:10100800BB6C1B7B002B23D17B681B68B3F850306B
:101018009BB21A46BB6C1B78DB0013447A681268D3
:10102800134403F206431B88C3F30903A7F84E30A1
:10103800B7F84E30002B00F08D807B681868BB6CC9
:101048005969BB6CDA88B7F84E3002F038FD81E098
:10105800BB6CDB78022B09D1FB8F1A46B96C786818
:1010680000F0C8F90346A7F84E3073E07B681B68A8
:101078001A46BB6C1B789B0013441B889BB223F455
:10108800E04323F07003A7F844307B681B681A46D6
:10109800BB6C1B789B001A44B7F8443043F07F437D
:1010A80043F47F0343F4004343F0C0039BB213802F
:1010B8007B681B681A46BB6C1B789B0013441B8813
:1010C8009BB203F48043002B22D07B681B68B3F8E3
:1010D80050309BB21A46BB6C1B78DB0013447A680D
:1010E8001268134403F202431B88C3F30903A7F8E9
:1010F8004E30B7F84E30002B2CD07B681868BB6C8C
:101108005969BB6C1A89B7F84E3002F0D8FC21E057
:101118007B681B68B3F850309BB21A46BB6C1B78CF
:10112800DB0013447A681268134403F206431B88F1
:10113800C3F30903A7F84E30B7F84E30002B09D097
:101148007B681868BB6C5969BB6C5A89B7F84E3014
:1011580002F0B5FCBB6CDA69B7F84E301A44BB6CC8
:10116800DA61BB6C9B69002B05D0B7F84E20BB6CCD
:101178001B699A4206D2BB6C1B7819467868FFF740
:101188003DFD0CE0BB6C5A69B7F84E301A44BB6C95
:101198005A617B681B68B96C184601F07AFEFB8FB0
:1011A80003F08003002B00F0178197F841201346C5
:1011B8009B001344DB0010337A681344BB647B68DC
:1011C8001B681A4697F841309B0013441B889BB252
:1011D80023F4E14323F07003BB877B681B681A463E
:1011E80097F841309B001A44BB8F6FEA43436FEA7C
:1011F80053439BB21380BB6CDB78012B40F0A1807A
:10120800BB6C00229A61BB6C1B7B002B00F09280A8
:10121800FB8F03F04003002B46D0BB6C5B78002BA0
:1012280026D17B681B68FB617B681B68B3F850306C
:101238009BB21A46FB691344FB61BB6C1B78DA004E
:10124800FB69134403F20243BB61BB691B889BB271
:10125800C3F309039AB2BB691A80BB691B889BB2A6
:101268006FEA43436FEA53439AB2BB691A8061E05D
:10127800BB6C5B78012B5DD17B681B687B627B68EC
:101288001B68B3F850309BB21A467B6A13447B62E2
:10129800BB6C1B78DA007B6A134403F202433B629F
:1012A8003B6A00221A8045E07B681B687B63BB6C45
:1012B8005B78002B26D17B681B68FB627B681B6808
:1012C800B3F850309BB21A46FB6A1344FB62BB6CFE
:1012D8001B78DA00FB6A134403F20643BB62BB6A5D
:1012E8001B889BB2C3F309039AB2BB6A1A80BB6A14
:1012F8001B889BB26FEA43436FEA53439AB2BB6AB7
:101308001A8017E0BB6C5B78012B13D17B681B68D4
:10131800B3F850309BB21A467B6B13447B63BB6CAB
:101328001B78DA007B6B134403F206433B633B6B89
:1013380000221A80BB6C1B7819467868FFF76AFC94
:101348004AE0FB8F03F48073002B3FD17B681B6856
:10135800B3F850309BB21A46BB6C1B78DB001344C1
:101368007A681268134403F202431B88C3F3090323
:101378007B87BB6C9A697B8F9A4206D9BB6C9A694A
:101388007B8FD21ABB6C9A6102E0BB6C00229A6117
:10139800BB6C9B69002B06D1BB6C1B78194678681F
:1013A800FFF738FC18E0BB6C5A697B8F1A44BB6C9A
:1013B8005A61BB6CDA697B8F1A44BB6CDA617B6853
:1013C8001B68B96C184601F064FD05E0FB8F1A46EE
:1013D800B96C786800F017F97B681B68B3F844307B
:1013E8009BB21BB2002BFFF67CAC0023184650378B
:1013F800BD4680BD80B588B000AFF860B9601346BF
:10140800FB80FB8803F48043002B7CD0FB681B68BF
:10141800B3F850309BB21A46BB681B78DB00134404
:10142800FA681268134403F202431B88C3F30903E2
:101438007B83BB689A697B8B9A4206D3BB689A699F
:101448007B8BD21ABB689A6102E0BB6800229A6162
:10145800BB689B69002B23D1FB681B681A46BB68D5
:101468001B789B0013441B889BB223F4804323F012
:1014780070033B833B8B83F400533B83FB681B68FF
:101488001A46BB681B789B001A443B8B43F07F438A
:1014980043F47F0343F4004343F080039BB213807B
:1014A800FB8803F04003002B1FD0FB681B681A461B
:1014B800BB681B789B0013441B889BB223F4E04352
:1014C80023F07003FB82FB681B681A46BB681B7815
:1014D8009B001A44FB8A43F07F4343F47F0343F4A1
:1014E800004343F0C0039BB213807B8B002B00F0BA
:1014F8008580FB681868BB685969BB681A897B8B4B
:1015080002F0DDFA7AE0FB681B68B3F850309BB252
:101518001A46BB681B78DB001344FA681268134448
:1015280003F206431B88C3F309037B83BB689A69EC
:101538007B8B9A4206D3BB689A697B8BD21ABB68AD
:101548009A6102E0BB6800229A61BB689B69002B24
:1015580023D1FB681B681A46BB681B789B001344A1
:101568001B889BB223F4804323F07003FB83FB8B1F
:1015780083F40053FB83FB681B681A46BB681B781F
:101588009B001A44FB8B43F07F4343F47F0343F4EF
:10159800004343F080039BB21380FB8803F04003B1
:1015A800002B1FD1FB681B681A46BB681B789B0081
:1015B80013441B889BB223F4E04323F07003BB83DE
:1015C800FB681B681A46BB681B789B001A44BB8BD8
:1015D80043F07F4343F47F0343F4004343F0C003E5
:1015E8009BB213807B8B002B08D0FB681868BB6804
:1015F8005969BB685A897B8B02F061FA7B8B184664
:101608002037BD4680BD80B5A6B000AFF860B96090
:101618001346FB80FB8803F04003002B00F0F781A2
:10162800FB681B68B3F850309BB21A46BB681B783E
:10163800DB001344FA681268134403F202431B8860
:10164800C3F30903A7F89630BB689A69B7F89630D0
:101658009A4207D9BB689A69B7F89630D21ABB681C
:101668009A6102E0BB6800229A61BB689B69002B03
:1016780040F0E180BB685B78002B26D1FB681B68D3
:101688003B63FB681B68B3F850309BB21A463B6B50
:1016980013443B63BB681B78DA003B6B134403F2CB
:1016A8000243FB62FB6A1B889BB2C3F309039AB22D
:1016B800FB6A1A80FB6A1B889BB26FEA43436FEA96
:1016C80053439AB2FB6A1A801AE0BB685B78012B15
:1016D80016D1FB681B68BB63FB681B68B3F8503006
:1016E8009BB21A46BB6B1344BB63BB681B78DA001A
:1016F800BB6B134403F202437B637B6B00221A80AB
:10170800FB681B68BB62BB685B78002B26D1FB6853
:101718001B683B62FB681B68B3F850309BB21A46E3
:101728003B6A13443B62BB681B78DA003B6A13448C
:1017380003F20643FB61FB691B889BB2C3F30903F1
:101748009AB2FB691A80FB691B889BB26FEA434314
:101758006FEA53439AB2FB691A8017E0BB685B785B
:10176800012B13D1FB681B68B3F850309BB21A46A3
:10177800BB6A1344BB62BB681B78DA00BB6A1344BC
:1017880003F206437B627B6A00221A80BB68DB781F
:10179800022B23D1FB681B681A46BB681B789B0089
:1017A80013441B889BB223F4E04323F040037B835C
:1017B8007B8B83F020037B83FB681B681A46BB681E
:1017C8001B789B001A447B8B43F07F4343F47F03D1
:1017D80043F4004343F080039BB21380BB681B783B
:1017E8001946F868FFF716FAFB8803F48043002BC4
:1017F8001FD0FB681B681A46BB681B789B00134404
:101808001B889BB223F4E04323F070033B83FB68FF
:101818001B681A46BB681B789B001A443B8B43F035
:101828007F4343F47F0343F4404343F080039BB278
:10183800138000231FE3FB8803F48043002B21D08F
:10184800FB681B681A46BB681B789B0013441B88FF
:101858009BB223F4E04323F07003A7F84E30FB68F3
:101868001B681A46BB681B789B001A44B7F84E30B1
:1018780043F07F4343F47F0343F4404343F0800342
:101888009BB21380BB6893F82430012B40F0CA82C6
:10189800BB685A69B7F896301A44BB685A61BB6886
:1018A800DA69B7F896301A44BB68DA61BB681A6A15
:1018B800BB681B699A4209D3BB681B69BB65BB68D7
:1018C8001A6ABB6DD21ABB681A6215E0BB681B6A3C
:1018D800002B07D1B7F89630BB65BB68002283F8A8
:1018E800242009E0BB68002283F82420BB681B6A17
:1018F800BB65BB6800221A62BB685B78002B5FD1AE
:10190800FB681B683B64FB681B68B3F850309BB2EC
:101918001A463B6C13443B64BB681B78DA003B6C8B
:10192800134403F20243FB63FB6B1B889BB2C3F3B4
:1019380009039AB2FB6B1A80BB6D002B0AD1FB6BB3
:101948001B889BB26FEA43436FEA53439AB2FB6B1F
:101958001A8051E0BB6D3E2B16D8BB6D5B083B650A
:10196800BB6D03F00103002B02D03B6D01333B65D7
:10197800FB6B1B889AB23B6D9BB29B029BB21343D5
:101988009AB2FB6B1A8037E0BB6D5B093B65BB6D98
:1019980003F01F03002B02D13B6D013B3B65FB6B42
:1019A8001B889AB23B6D9BB29B029BB213439BB2BE
:1019B8006FEA43436FEA53439AB2FB6B1A801BE00A
:1019C800BB685B78012B17D1FB681B68BB64FB689D
:1019D8001B68B3F850309BB21A46BB6C1344BB6407
:1019E800BB681B78DA00BB6C134403F202437B64C8
:1019F800BB6D9AB27B6C1A80FB681868BB68596922
:101A0800BB681A89BB6D9BB202F016F80AE2FB6844
:101A18001B68B3F850309BB21A46BB681B78DB00D2
:101A28001344FA681268134403F206431B88C3F38D
:101A38000903A7F89630BB689A69B7F896309A42B6
:101A480007D3BB689A69B7F89630D21ABB689A610F
:101A580002E0BB6800229A61BB689B69002B40F0DA
:101A6800F680BB685B78002B26D1FB681B687B6718
:101A7800FB681B68B3F850309BB21A467B6F13445F
:101A88007B67BB681B78DA007B6F134403F2024361
:101A98003B673B6F1B889BB2C3F309039AB23B6F4A
:101AA8001A803B6F1B889BB26FEA43436FEA53432C
:101AB8009AB23B6F1A801AE0BB685B78012B16D18B
:101AC800FB681B68FB67FB681B68B3F850309BB268
:101AD8001A46FB6F1344FB67BB681B78DA00FB6F81
:101AE800134403F20243BB67BB6F00221A80FB68F2
:101AF8001B68C7F88430BB685B78002B2FD1FB6864
:101B08001B68C7F88C30FB681B68B3F850309BB271
:101B18001A46D7F88C301344C7F88C30BB681B784A
:101B2800DA00D7F88C30134403F20643C7F888303C
:101B3800D7F888301B889BB2C3F309039AB2D7F849
:101B480088301A80D7F888301B889BB26FEA4343E5
:101B58006FEA53439AB2D7F888301A801CE0BB6802
:101B68005B78012B18D1FB681B68B3F850309BB227
:101B78001A46D7F884301344C7F88430BB681B78FA
:101B8800DA00D7F88430134403F20643C7F88030EC
:101B9800D7F8803000221A80BB68DB78022B27D167
:101BA800FB681B681A46BB681B789B0013441B889C
:101BB8009BB223F4E04323F04003A7F89430B7F82E
:101BC800943083F02003A7F89430FB681B681A460A
:101BD800BB681B789B001A44B7F8943043F07F43E6
:101BE80043F47F0343F4004343F080039BB2138024
:101BF800BB681B781946F868FFF70CF8FB8803F4F4
:101C08008043002B21D1FB681B681A46BB681B78F0
:101C18009B0013441B889BB223F4E04323F070031A
:101C2800A7F89230FB681B681A46BB681B789B00B4
:101C38001A44B7F8923043F07F4343F47F0343F4E8
:101C4800404343F080039BB21380002313E1FB88D9
:101C580003F48043002B21D1FB681B681A46BB683C
:101C68001B789B0013441B889BB223F4E04323F0AA
:101C78007003A7F85630FB681B681A46BB681B78C8
:101C88009B001A44B7F8563043F07F4343F47F0370
:101C980043F4404343F080039BB21380BB6893F83E
:101CA8002430012B40F0BE80BB685A69B7F89630E3
:101CB8001A44BB685A61BB68DA69B7F896301A44A7
:101CC800BB68DA61BB681A6ABB681B699A4209D3A8
:101CD800BB681B69BB65BB681A6ABB6DD21ABB6857
:101CE8001A6215E0BB681B6A002B07D1B7F896305B
:101CF800BB65BB68002283F8242009E0BB681B6A27
:101D0800BB65BB6800221A62BB68002283F82420E6
:101D1800FB681B68FB65BB685B78002B5FD1FB68C1
:101D28001B68BB66FB681B68B3F850309BB21A4649
:101D3800BB6E1344BB66BB681B78DA00BB6E1344EA
:101D480003F206437B667B6E1B889BB2C3F30903D1
:101D58009AB27B6E1A80BB6D002B0AD17B6E1B88F2
:101D68009BB26FEA43436FEA53439AB27B6E1A8081
:101D78004EE0BB6D3E2B16D8BB6D5B083B66BB6D5A
:101D880003F00103002B02D03B6E01333B667B6EF0
:101D98001B889AB23B6E9BB29B029BB213439AB2CA
:101DA8007B6E1A8034E0BB6D5B093B66BB6D03F04C
:101DB8001F03002B02D13B6E013B3B667B6E1B88E9
:101DC8009AB23B6E9BB29B029BB213439BB26FEAE3
:101DD80043436FEA53439AB27B6E1A8018E0BB689C
:101DE8005B78012B14D1FB681B68B3F850309BB2A9
:101DF8001A46FB6D1344FB65BB681B78DA00FB6D64
:101E0800134403F20643FB66BB6D9AB2FB6E1A805D
:101E1800FB681868BB685969BB685A89BB6D9BB277
:101E280001F00AFEFB681B681A46BB681B789B001A
:101E380013441B889BB223F4E04323F04003FB8246
:101E4800FB8A83F01003FB82FB8A83F02003FB826A
:101E5800FB681B681A46BB681B789B001A44FB8A00
:101E680043F07F4343F47F0343F4004343F080038C
:101E78009BB21380002318469837BD4680BD80B4B6
:101E880085B000AF78607B681B68FB607B680122C7
:101E9800C3F8D0227B68002283F8C822FB68B3F815
:101EA80054309BB243F001039AB2FB68A3F8542064
:101EB800FB68B3F854309BB243F002039AB2FB6854
:101EC800A3F85420002318461437BD465DF8047B58
:101ED800704780B483B000AF78600B46FB7000BFDA
:101EE8000C37BD465DF8047B7047000080B485B0B0
:101EF80000AF78607B68002B41D14B4B1B6803F423
:101F0800C063B3F5806F31D1474BD3F88030464A70
:101F180023F48073C2F88030434B1B6823F4C063FA
:101F2800414A43F400731360404B1B68322202FBA2
:101F380003F33F4AA2FB03239B0C0133FB6002E03F
:101F4800FB68013BFB60384B5B6903F48063B3F5C6
:101F5800806F02D1FB68002BF2D1334B5B6903F42D
:101F68008063B3F5806F58D1032357E02E4BD3F825
:101F780080302D4A23F48073C2F880304DE07B68AE
:101F8800B3F5007F41D1284B1B6803F4C063B3F558
:101F9800806F31D1244BD3F88030234A43F48073C7
:101FA800C2F88030204B1B6823F4C0631E4A43F4F8
:101FB800007313601D4B1B68322202FB03F31C4A9B
:101FC800A2FB03239B0C0133FB6002E0FB68013B8F
:101FD800FB60154B5B6903F48063B3F5806F02D136
:101FE800FB68002BF2D1104B5B6903F48063B3F5F7
:101FF800806F12D1032311E00B4BD3F880300A4ACB
:1020080043F48073C2F8803007E0074B1B6823F461
:10201800C063054A43F480631360002318461437ED
:10202800BD465DF8047B704700700040000000204A
:1020380083DE1B4380B400AF054B9B68044A43F41E
:102048008043936000BFBD465DF8047B704700BFC6
:102058000070004080B588B000AF78607B68002BC6
:1020680001D10123FEE27B681B6803F00103002B0A
:1020780075D0974B9B6803F00C03BB61944BDB68EE
:1020880003F003037B61BB690C2B02D17B69032B33
:1020980002D0BB69082B0BD18D4B1B6803F40033AE
:1020A800002B5BD07B685B68002B57D10123D9E2FA
:1020B8007B685B68B3F5803F06D1854B1B68844A13
:1020C80043F4803313601DE07B685B68B3F5A02F91
:1020D8000CD17F4B1B687E4A43F4802313607C4BF2
:1020E8001B687B4A43F4803313600BE0784B1B6812
:1020F800774A23F480331360754B1B68744A23F4C2
:10210800802313607B685B68002B13D0FEF766FAA8
:10211800386108E0FEF762FA02463B69D31A642B7D
:1021280001D903239EE26A4B1B6803F40033002B9A
:10213800F0D014E0FEF752FA386108E0FEF74EFAE4
:1021480002463B69D31A642B01D903238AE2604B08
:102158001B6803F40033002BF0D100E000BF7B685C
:102168001B6803F00203002B75D0594B9B6803F0E2
:102178000C03BB61564BDB6803F003037B61BB694F
:102188000C2B02D17B69022B02D0BB69042B1FD117
:102198004F4B1B6803F48063002B05D07B68DB681A
:1021A800002B01D101235DE2494B5B6823F0FE421D
:1021B8007B681B691B06464913434B60454B1B68EC
:1021C8001846FEF7BFF90346002B43D0012349E226
:1021D8007B68DB68002B23D03D4B1B683C4A43F4EB
:1021E80080731360FEF7FAF9386108E0FEF7F6F934
:1021F80002463B69D31A022B01D9032332E2344B3E
:102208001B6803F48063002BF0D0314B5B6823F02C
:10221800FE427B681B691B062D4913434B601AE07D
:102228002B4B1B682A4A23F480731360FEF7D6F9F8
:10223800386108E0FEF7D2F902463B69D31A022B4F
:1022480001D903230EE2224B1B6803F48063002BA1
:10225800F0D100E000BF7B681B6803F00803002B87
:1022680041D07B685B69002B1CD0194BD3F89430A4
:10227800174A43F00103C2F89430FEF7AFF938610A
:1022880008E0FEF7ABF902463B69D31A022B01D9E5
:102298000323E7E10E4BD3F8943003F00203002B3D
:1022A800EFD020E00A4BD3F89430094A23F0010319
:1022B800C2F89430FEF792F938610DE0FEF78EF916
:1022C80002463B69D31A022B06D90323CAE100BF91
:1022D80000100240040000208C4BD3F8943003F027
:1022E8000203002BEAD17B681B6803F00403002B70
:1022F80000F0A6800023FB77844B9B6D03F080538E
:10230800002B01D1012300E00023002B0DD07F4BCF
:102318009B6D7E4A43F0805393657C4B9B6D03F025
:102328008053FB60FB680123FB77794B1B6803F440
:102338008073002B18D1764B1B68754A43F4807361
:102348001360FEF74BF9386108E0FEF747F90246DB
:102358003B69D31A022B01D9032383E16C4B1B6819
:1023680003F48073002BF0D07B689B68012B08D1A5
:10237800664BD3F89030654A43F00103C2F89030B9
:1023880024E07B689B68052B10D1604BD3F8903014
:102398005E4A43F00403C2F890305C4BD3F89030A7
:1023A8005A4A43F00103C2F890300FE0574BD3F874
:1023B8009030564A23F00103C2F89030534BD3F8BB
:1023C8009030524A23F00403C2F890307B689B682F
:1023D800002B16D0FEF702F938610AE0FEF7FEF886
:1023E80002463B69D31A41F28832934201D903234A
:1023F80038E1464BD3F8903003F00203002BEDD0C0
:1024080015E0FEF7EBF838610AE0FEF7E7F8024658
:102418003B69D31A41F28832934201D9032321E15F
:102428003A4BD3F8903003F00203002BEDD1FB7F39
:10243800012B05D1354B9B6D344A23F080539365AE
:102448007B681B6803F02003002B3CD07B689B69EA
:10245800002B1CD02D4BD3F898302C4A43F00103A5
:10246800C2F89830FEF7BAF8386108E0FEF7B6F817
:1024780002463B69D31A022B01D90323F2E0234B0E
:10248800D3F8983003F00203002BEFD01BE01F4B6A
:10249800D3F898301D4A23F00103C2F89830FEF7AC
:1024A8009DF8386108E0FEF799F802463B69D31AAF
:1024B800022B01D90323D5E0144BD3F8983003F04D
:1024C8000203002BEFD17B68DB69002B00F0C98089
:1024D8000E4B9B6803F00C030C2B00F083807B6889
:1024E800DB69022B5ED1094B1B68084A23F0807315
:1024F8001360FEF773F838610CE0FEF76FF80246D8
:102508003B69D31A022B05D90323ABE00010024024
:1025180000700040554B1B6803F00073002BECD192
:10252800524BDA68524B13407A68116A7A68526AD9
:10253800013A120111437A68926A120211437A68C9
:10254800126B5208013A520511437A68526B5208CD
:10255800013A520611437A68D26AD2060A434349BD
:102568001343CB60414B1B68404A43F080731360B0
:102578003E4BDB683D4A43F08073D360FEF72EF88C
:10258800386108E0FEF72AF802463B69D31A022BA5
:1025980001D9032366E0354B1B6803F00073002B59
:1025A800F0D05EE0314B1B68304A23F08073136033
:1025B800FEF714F8386108E0FEF710F802463B69A8
:1025C800D31A022B01D903234CE0284B1B6803F0D4
:1025D8000073002BF0D1254BDA682449254B1340B2
:1025E800CB603EE07B68DB69012B01D1012339E038
:1025F8001E4BDB687B617B6903F003027B681B6A07
:102608009A422CD17B6903F0F0027B685B6A013B3C
:102618001B019A4223D17B6903F4FE427B689B6AC3
:102628001B029A421BD17B6903F078427B68DB6A04
:10263800DB069A4213D17B6903F4C0027B681B6BEB
:102648005B08013B5B059A4209D17B6903F0C062D4
:102658007B685B6B5B08013B5B069A4201D00123F8
:1026680000E0002318462037BD4680BD0010024018
:102678000C809F01FCFFEEFE80B586B000AF78604D
:10268800396000237B617B68002B01D101231EE1A7
:10269800914B1B6803F00F033A689A4210D98E4B8E
:1026A8001B6823F00F028C493B6813430B608A4B6D
:1026B8001B6803F00F033A689A4201D0012306E130
:1026C8007B681B6803F00103002B73D07B685B6891
:1026D800032B29D1814B1B6803F00073002B01D118
:1026E8000123F4E000F066F938613B697C4A9342C3
:1026F8003FD97A4B9B6803F0F003002B09D07B6825
:102708001B6803F00203002B33D07B689B68002B07
:102718002FD1724B9B6823F0F003704A43F080037B
:10272800936080237B6124E07B685B68022B07D180
:102738006A4B1B6803F40033002B09D10123C6E060
:10274800664B1B6803F48063002B01D10123BEE0B4
:1027580000F0CEF838613B69614A934209D95F4B72
:102768009B6823F0F0035D4A43F080039360802365
:102778007B615A4B9B6823F003027B685B6857496F
:1027880013438B60FDF72AFFF8600AE0FDF726FF88
:102798000246FB68D31A41F28832934201D90323D7
:1027A80095E04E4B9B6803F00C027B685B689B00CE
:1027B8009A42EBD17B681B6803F00203002B23D0FD
:1027C8007B681B6803F00403002B05D0434B9B6810
:1027D800424A43F4E06393607B681B6803F0080394
:1027E800002B07D03D4B9B6823F47C533B4A43F4B2
:1027F800E0639360394B9B6823F0F0027B689B6829
:10280800364913438B6008E07B69802B05D1334B35
:102818009B68324A23F0F00393602F4B1B6803F048
:102828000F033A689A421DD22B4B1B6823F00F0204
:1028380029493B6813430B60FDF7D0FEF8600AE0B6
:10284800FDF7CCFE0246FB68D31A41F28832934268
:1028580001D903233BE0204B1B6803F00F033A68C0
:102868009A42EDD17B681B6803F00403002B08D063
:102878001A4B9B6823F4E0627B68DB6817491343B3
:102888008B607B681B6803F00803002B09D0134B8F
:102898009B6823F460527B681B69DB000F49134374
:1028A8008B6000F025F802460C4B9B681B0903F06F
:1028B8000F030C49CB5C03F01F0322FA03F30A4A07
:1028C80013600A4B1B681846FDF73CFE0346184682
:1028D8001837BD4680BD00BF0020024000100240EE
:1028E80000B4C404D03B000800000020040000200D
:1028F80080B487B000AF2C4B9B6803F00C03042B0B
:1029080002D12A4B3B6147E0274B9B6803F00C033D
:10291800082B02D1264B3B613EE0234B9B6803F01A
:102928000C030C2B36D1204BDB6803F00303FB6050
:102938001D4BDB681B0903F00F030133BB60FB6809
:10294800032B0CD11A4ABB68B2FBF3F3164AD268C0
:10295800120A02F07F0202FB03F37B610CE0134AC8
:10296800BB68B2FBF3F3104AD268120A02F07F0286
:1029780002FB03F37B6100BF0B4BDB685B0E03F0CC
:10298800030301335B007B607A697B68B2FBF3F376
:102998003B6101E000233B613B6918461C37BD469B
:1029A8005DF8047B704700BF001002400024F4006B
:1029B80000127A0080B487B000AF1E4BDB6803F0CA
:1029C80003033B611B4BDB681B0903F00F03013357
:1029D800FB603B69032B0CD1174AFB68B2FBF3F38E
:1029E800144AD268120A02F07F0202FB03F37B61E9
:1029F8000CE0124AFB68B2FBF3F30E4AD268120AE3
:102A080002F07F0202FB03F37B6100BF094BDB6826
:102A18005B0E03F0030301335B00BB607A69BB689C
:102A2800B2FBF3F37B607B6818461C37BD465DF844
:102A3800047B70470010024000127A000024F40062
:102A480080B586B000AF78600023FB740023BB74A8
:102A58007B681B6803F40023002B00F09880002398
:102A68007B74434B9B6D03F08053002B0DD1404B7F
:102A78009B6D3F4A43F0805393653D4B9B6D03F03C
:102A88008053BB60BB6801237B743A4B1B68394A8F
:102A980043F480731360FDF7A1FDF86009E0FDF7CA
:102AA8009DFD0246FB68D31A022B02D90323FB744F
:102AB80005E0304B1B6803F48073002BEFD0FB7CE0
:102AC800002B59D12A4BD3F8903003F440737B6123
:102AD8007B69002B1ED07B681B6C7A699A4219D0DF
:102AE800234BD3F8903023F440737B61204BD3F809
:102AF80090301F4A43F48033C2F890301C4BD3F80F
:102B080090301B4A23F48033C2F89030184A7B690E
:102B1800C2F890307B6903F00103002B16D0FDF753
:102B28005DFDF8600BE0FDF759FD0246FB68D31A1E
:102B380041F28832934202D90323FB7406E00C4B1E
:102B4800D3F8903003F00203002BECD0FB7C002B71
:102B58000BD1074BD3F8903023F440727B681B6C81
:102B680003491343C1F8903008E0FB7CBB7405E0CF
:102B78000010024000700040FB7CBB747B7C012B82
:102B880005D1A64B9B6DA54A23F0805393657B68BE
:102B98001B6803F00103002B0AD0A04BD3F8883040
:102BA80023F003027B685B689C491343C1F88830B3
:102BB8007B681B6803F00203002B0AD0974BD3F8FD
:102BC800883023F00C027B689B6894491343C1F852
:102BD80088307B681B6803F00403002B0AD08F4BF6
:102BE800D3F8883023F030027B68DB688B491343C5
:102BF800C1F888307B681B6803F00803002B0AD0F3
:102C0800864BD3F8883023F0C0027B681B69834960
:102C18001343C1F888307B681B6803F02003002B3E
:102C28000AD07E4BD3F8883023F440627B685B6916
:102C38007A491343C1F888307B681B6803F0400366
:102C4800002B0AD0754BD3F8883023F440527B68A8
:102C58009B6972491343C1F888307B681B6803F08D
:102C68008003002B0AD06D4BD3F8883023F4404200
:102C78007B68DB6969491343C1F888307B681B6846
:102C880003F48073002B0AD0644BD3F8883023F404
:102C980040327B681B6A61491343C1F888307B68FE
:102CA8001B6803F40073002B0AD05C4BD3F8883000
:102CB80023F440227B685B6A58491343C1F8883083
:102CC8007B681B6803F48063002B15D0534BD3F843
:102CD800883023F440127B689B6A50491343C1F83B
:102CE80088307B689B6AB3F5801F05D14B4BDB6846
:102CF8004A4A43F48013D3607B681B6803F400637B
:102D0800002B15D0454BD3F8883023F440027B685C
:102D1800DB6A42491343C1F888307B68DB6AB3F544
:102D2800800F05D13D4BDB683C4A43F48013D360E8
:102D38007B681B6803F48053002B15D0374BD3F8FE
:102D4800883023F040727B681B6B34491343C1F809
:102D580088307B681B6BB3F1807F05D12F4BDB6814
:102D68002E4A43F48013D3607B681B6803F4005336
:102D7800002B15D0294BD3F8883023F040627B68AC
:102D88005B6B26491343C1F888307B685B6BB3F1F2
:102D9800006F05D1214BDB68204A43F48013D360D0
:102DA8007B681B6803F48043002B15D01B4BD3F8BA
:102DB800883023F040627B689B6B18491343C1F845
:102DC80088307B689B6BB3F1006F05D1134BDB68D0
:102DD800124A43F48013D3607B681B6803F40043F2
:102DE800002B15D00D4BD3F8883023F040527B6868
:102DF800DB6B0A491343C1F888307B68DB6BB3F19E
:102E0800805F05D1054BDB68044A43F48033D36007
:102E1800BB7C18461837BD4680BD00BF0010024075
:102E280080B485B000AF78604BF68073FB607B6838
:102E3800B3F840309AB2FB689BB2DB439BB21340B5
:102E48009AB27B68A3F84020002318461437BD4681
:102E58005DF8047B704780B485B000AFF8603B1D17
:102E680083E80600FB680122A3F84020FB680022E3
:102E7800A3F84020FB680022A3F84420FB68002246
:102E8800A3F85020002318461437BD465DF8047B8C
:102E9800704780B5ACB000AF786039603B685B784C
:102EA800012B40F0CA843B689A693B681B699A42C7
:102EB80004D93B681B69C7F8AC3003E03B689B69E1
:102EC800C7F8AC303B681B7B002B22D13B685969A3
:102ED8003B68DA88D7F8AC309BB2786800F0ACFD74
:102EE8007B683B617B68B3F850309BB21A463B69FC
:102EF80013443B613B681B78DA003B69134403F2D7
:102F08000243FB60D7F8AC309AB2FB681A8000F035
:102F18006FBC3B68DB78022B40F01E833B681A6A63
:102F28003B681B699A4240F2CF827A683B681B78FB
:102F38009B0013441B889BB223F4E04323F07003E7
:102F4800A7F856307A683B681B789B001A44B7F894
:102F5800563043F07F4343F47F0343F4014343F087
:102F680080039BB213803B681A6AD7F8AC30D21A38
:102F78003B681A627A683B681B789B0013441B887D
:102F88009BB203F04003002B00F04F817B683B634A
:102F98003B685B78002B6BD17B68BB627B68B3F8BE
:102FA80050309BB21A46BB6A1344BB623B681B781D
:102FB800DA00BB6A134403F206437B627B6A1B8810
:102FC8009BB2C3F309039AB27B6A1A80D7F8AC3074
:102FD800002B0AD17B6A1B889BB26FEA43436FEAD6
:102FE80053439AB27B6A1A805BE0D7F8AC303E2B29
:102FF8001CD8D7F8AC305B08C7F8A830D7F8AC3085
:1030080003F00103002B04D0D7F8A8300133C7F828
:10301800A8307B6A1B889AB2D7F8A8309BB29B026B
:103028009BB213439AB27B6A1A803AE0D7F8AC3065
:103038005B09C7F8A830D7F8AC3003F01F03002BA2
:1030480004D1D7F8A830013BC7F8A8307B6A1B88A1
:103058009AB2D7F8A8309BB29B029BB213439BB29B
:103068006FEA43436FEA53439AB27B6A1A8018E0C7
:103078003B685B78012B14D17B68B3F850309BB266
:103088001A463B6B13443B633B681B78DA003B6B87
:10309800134403F20643FB62D7F8AC309AB2FB6ADA
:1030A8001A803B685B89A7F876303B685969D7F87E
:1030B800AC309BB2B7F87620786800F0BDFC3B686E
:1030C8005A69D7F8AC301A443B685A613B681A6AA7
:1030D8003B681B699A4207D93B681A6AD7F8AC3033
:1030E800D21A3B681A6206E03B681B6AC7F8AC3024
:1030F8003B6800221A623B685B78002B6BD17B68C7
:10310800BB617B68B3F850309BB21A46BB69134465
:10311800BB613B681B78DA00BB69134403F20243C6
:103128007B617B691B889BB2C3F309039AB27B69F5
:103138001A80D7F8AC30002B0AD17B691B889BB268
:103148006FEA43436FEA53439AB27B691A805DE0A2
:10315800D7F8AC303E2B1CD8D7F8AC305B08C7F892
:10316800A430D7F8AC3003F00103002B04D0D7F813
:10317800A4300133C7F8A4307B691B889AB2D7F80A
:10318800A4309BB29B029BB213439AB27B691A800C
:103198003CE0D7F8AC305B09C7F8A430D7F8AC30BE
:1031A80003F01F03002B04D1D7F8A430013BC7F864
:1031B800A4307B691B889AB2D7F8A4309BB29B02D3
:1031C8009BB213439BB26FEA43436FEA53439AB2ED
:1031D8007B691A801AE03B685B78012B16D17B6803
:1031E8003B627B68B3F850309BB21A463B6A134483
:1031F8003B623B681B78DA003B6A134403F20243E4
:10320800FB61D7F8AC309AB2FB691A803B681B891E
:10321800A7F876303B685969D7F8AC309BB2B7F855
:103228007620786800F008FCE2E23B685B78002BC7
:103238006BD17B68BB647B68B3F850309BB21A468D
:10324800BB6C1344BB643B681B78DA00BB6C13444B
:1032580003F202437B647B6C1B889BB2C3F30903B4
:103268009AB27B6C1A80D7F8AC30002B0AD17B6CF1
:103278001B889BB26FEA43436FEA53439AB27B6C55
:103288001A805DE0D7F8AC303E2B1CD8D7F8AC30AC
:103298005B08C7F8A030D7F8AC3003F00103002B67
:1032A80004D0D7F8A0300133C7F8A0307B6C1B8856
:1032B8009AB2D7F8A0309BB29B029BB213439AB242
:1032C8007B6C1A803CE0D7F8AC305B09C7F8A030BB
:1032D800D7F8AC3003F01F03002B04D1D7F8A03087
:1032E800013BC7F8A0307B6C1B889AB2D7F8A03096
:1032F8009BB29B029BB213439BB26FEA43436FEAB4
:1033080053439AB27B6C1A801AE03B685B78012BB6
:1033180016D17B683B657B68B3F850309BB21A4680
:103328003B6D13443B653B681B78DA003B6D1344E7
:1033380003F20243FB64D7F8AC309AB2FB6C1A80F4
:103348003B681B89A7F876303B685969D7F8AC30D9
:103358009BB2B7F87620786800F06EFB3B685A6934
:10336800D7F8AC301A443B685A613B681A6A3B6824
:103378001B699A4207D93B681A6AD7F8AC30D21A47
:103388003B681A6206E03B681B6AC7F8AC303B68CA
:1033980000221A627B683B643B685B78002B6BD128
:1033A8007B68BB637B68B3F850309BB21A46BB6B33
:1033B8001344BB633B681B78DA00BB6B134403F20E
:1033C80006437B637B6B1B889BB2C3F309039AB2EA
:1033D8007B6B1A80D7F8AC30002B0AD17B6B1B882B
:1033E8009BB26FEA43436FEA53439AB27B6B1A80EE
:1033F8005BE0D7F8AC303E2B1CD8D7F8AC305B0874
:10340800C7F89C30D7F8AC3003F00103002B04D088
:10341800D7F89C300133C7F89C307B6B1B889AB275
:10342800D7F89C309BB29B029BB213439AB27B6B3A
:103438001A803AE0D7F8AC305B09C7F89C30D7F867
:10344800AC3003F01F03002B04D1D7F89C30013BAC
:10345800C7F89C307B6B1B889AB2D7F89C309BB21C
:103468009B029BB213439BB26FEA43436FEA5343F9
:103478009AB27B6B1A8018E03B685B78012B14D1F9
:103488007B68B3F850309BB21A463B6C13443B64DC
:103498003B681B78DA003B6C134403F20643FB637A
:1034A800D7F8AC309AB2FB6B1A803B685B89A7F8F7
:1034B80076303B685969D7F8AC309BB2B7F87620BC
:1034C800786800F0B9FA93E13B681B6AC7F8AC303A
:1034D8007A683B681B789B0013441B889BB223F4D3
:1034E800E24323F07003A7F862307A683B681B78E0
:1034F8009B001A44B7F8623043F07F4343F47F03DC
:1035080043F4004343F080039BB213807B68FB6560
:103518007B68B3F850309BB21A46FB6D1344FB65C9
:103528003B681B78DA00FB6D134403F20243BB656A
:10353800D7F8AC309AB2BB6D1A803B681B89A7F8E4
:1035480076303B685969D7F8AC309BB2B7F876202B
:10355800786800F071FA4BE13B681A6AD7F8AC302A
:10356800D21A3B681A627A683B681B789B0013443E
:103578001B889BB203F04003002B00F09A807B6805
:103588003B673B685B78002B6BD17B68BB667B68CD
:10359800B3F850309BB21A46BB6E1344BB663B6807
:1035A8001B78DA00BB6E134403F206437B667B6E1E
:1035B8001B889BB2C3F309039AB27B6E1A80D7F8B3
:1035C800AC30002B0AD17B6E1B889BB26FEA434359
:1035D8006FEA53439AB27B6E1A805BE0D7F8AC303F
:1035E8003E2B1CD8D7F8AC305B08C7F89830D7F812
:1035F800AC3003F00103002B04D0D7F89830013326
:10360800C7F898307B6E1B889AB2D7F898309BB26F
:103618009B029BB213439AB27B6E1A803AE0D7F8AA
:10362800AC305B09C7F89830D7F8AC3003F01F030B
:10363800002B04D1D7F89830013BC7F898307B6E3F
:103648001B889AB2D7F898309BB29B029BB213435F
:103658009BB26FEA43436FEA53439AB27B6E1A8078
:1036680018E03B685B78012B14D17B68B3F85030C5
:103678009BB21A463B6F13443B673B681B78DA00E2
:103688003B6F134403F20643FB66D7F8AC309AB29B
:10369800FB6E1A803B685B89A7F876303B685969EE
:1036A800D7F8AC309BB2B7F87620786800F0C4F948
:1036B8009EE03B685B78002B6BD17B68FB677B687F
:1036C800B3F850309BB21A46FB6F1344FB673B6854
:1036D8001B78DA00FB6F134403F20243BB67BB6F2E
:1036E8001B889BB2C3F309039AB2BB6F1A80D7F841
:1036F800AC30002B0AD1BB6F1B889BB26FEA4343E7
:103708006FEA53439AB2BB6F1A8063E0D7F8AC30C4
:103718003E2B1CD8D7F8AC305B08C7F89430D7F8E4
:10372800AC3003F00103002B04D0D7F894300133F8
:10373800C7F89430BB6F1B889AB2D7F894309BB205
:103748009B029BB213439AB2BB6F1A8042E0D7F830
:10375800AC305B09C7F89430D7F8AC3003F01F03DE
:10376800002B04D1D7F89430013BC7F89430BB6FD5
:103778001B889AB2D7F894309BB29B029BB2134332
:103788009BB26FEA43436FEA53439AB2BB6F1A8006
:1037980020E03B685B78012B1CD17B68C7F884303C
:1037A8007B68B3F850309BB21A46D7F8843013447C
:1037B800C7F884303B681B78DA00D7F884301344A4
:1037C80003F20243C7F88030D7F8AC309AB2D7F882
:1037D80080301A803B681B89A7F876303B685969A6
:1037E800D7F8AC309BB2B7F87620786800F024F9A7
:1037F8007A683B681B789B0013441B889BB223F4B0
:10380800E04323F040037B817B8983F010037B81B5
:103818007B8983F020037B817A683B681B789B0057
:103828001A447B8943F07F4343F47F0343F4004306
:1038380043F080039BB21380D5E03B681B7B002BD1
:1038480056D13B689B69002B22D13B68DB78002B63
:103858001ED17A683B681B789B0013441B889BB277
:1038680023F4E04323F07003A7F88E307A683B68AE
:103878001B789B001A44B7F88E3043F07F4343F41B
:103888007F0343F4014343F080039BB213801DE0A0
:103898007A683B681B789B0013441B889BB223F40F
:1038A800E24323F07003A7F88C307A683B681B78F2
:1038B8009B001A44B7F88C3043F07F4343F47F03EE
:1038C80043F4004343F080039BB213803B689A693A
:1038D8003B681B699A4207D93B689A693B681B6930
:1038E800D21A3B689A6154E03B6800229A6150E022
:1038F8003B68DB78022B42D13B68DB69002B48D060
:103908007A683B681B789B0013441B88A7F89230A1
:10391800B7F8923003F48043002B05D0B7F8923003
:1039280003F04003002B0BD1B7F8923003F4804327
:10393800002B2ED1B7F8923003F04003002B28D18A
:103948007A683B681B789B0013441B889BB223F45E
:10395800E04323F07003A7F890307A683B681B783F
:103968009B001A44B7F8903043F07F4343F47F0339
:1039780043F4004343F0C0039BB2138009E03B6863
:10398800DB78012B03D13B6800229A6101E0012317
:103998002AE07A683B681B789B0013441B889BB21B
:1039A80023F4804323F07003A7F88A30B7F88A30ED
:1039B80083F48053A7F88A30B7F88A3083F4005329
:1039C800A7F88A307A683B681B789B001A44B7F8D6
:1039D8008A3043F07F4343F47F0343F4004343F0CA
:1039E80080039BB2138000231846B037BD4680BDC4
:1039F80080B483B000AF78600B46FB70FB78002B77
:103A080003D17B688022A3F84C20002318460C378A
:103A1800BD465DF8047B704780B485B000AF786020
:103A28007B68B3F844309BB2FB60FB6818461437D8
:103A3800BD465DF8047B704780B48BB000AFF8607A
:103A4800B96011461A460B46FB801346BB80BB88FB
:103A580001335B08BB61FB687B61BB68FB61FA886B
:103A68007B69134403F580633B62BB697B621CE09E
:103A7800FB691B787B82FB6901331B781BB21B0235
:103A88001AB2B7F9123013431BB27B823B6A7A8AA7
:103A98001A803B6A02333B62FB690133FB61FB69B5
:103AA8000133FB617B6A013B7B627B6A002BDFD1C0
:103AB80000BF00BF2C37BD465DF8047B704780B45B
:103AC8008BB000AFF860B96011461A460B46FB8010
:103AD8001346BB80BB885B089BB2BB61FB687B61FC
:103AE800BB68FB61FA887B69134403F580633B621A
:103AF800BB697B6218E03B6A1B889BB23B613B6AEF
:103B080002333B623B69DAB2FB691A70FB69013325
:103B1800FB613B691B0ADAB2FB691A70FB69013366
:103B2800FB617B6A013B7B627B6A002BE3D1BB882C
:103B380003F001039BB2002B07D03B6A1B889BB2A2
:103B48003B613B69DAB2FB691A7000BF2C37BD468E
:103B58005DF8047B704702440346934200D17047E6
:103B680003F8011BF9E7000070B50D4D0D4C641BFF
:103B7800A4100026A64209D10B4D0C4C00F018F8F1
:103B8800641BA4100026A64205D170BD55F8043B5D
:103B980098470136EEE755F8043B98470136F2E7B7
:103BA800E03B0008E03B0008E03B0008E43B00087D
:103BB800F8B500BFF8BC08BC9E467047F8B500BF12
:083BC800F8BC08BC9E467047E2
:103BD00000000000000000000102030406070809BD
:043BE000FD010008DB
:043BE400D9010008FB
:0C3BE8000024F4001000000001000000A8
:04000005080004C922
:00000001FF
