:020000040800F2
:1000000000800020E90300082D0300082F030008EA
:100010003103000833030008350300080000000026
:10002000000000000000000000000000370300088E
:1000300039030008000000003B0300083D030008EE
:10004000390400083904000839040008390400089C
:10005000390400083904000839040008390400088C
:10006000390400083904000839040008390400087C
:10007000390400083904000839040008390400086C
:1000800039040008000000003904000839040008A1
:100090004103000839040008390400083904000845
:1000A000390400083904000839040008390400083C
:1000B000390400083904000839040008390400082C
:1000C000390400083904000839040008390400081C
:1000D000390400083904000839040008390400080C
:1000E00039040008390400083904000839040008FC
:1000F0003904000839040008390400080000000031
:100100000000000039040008000000003904000865
:100110003904000800000000390400083904000810
:1001200039040008390400083904000839040008BB
:100130003904000800000000000000003904000835
:100140003904000839040008000000000000000025
:10015000000000000000000000000000000000009F
:10016000000000000000000000000000390400084A
:10017000390400080000000000000000000000003A
:10018000000000003904000800000000000000002A
:10019000000000000000000000000000000000005F
:1001A00000000000000000003904000839040008C5
:1001B0003904000839040008390400080000000070
:1001C00000000000390400080000000000000000EA
:0801D00039040008390400089D
:1001D80010B5054C237833B9044B13B10448AFF379
:1001E80000800123237010BD3C00002000000000A7
:1001F800F839000808B5034B1BB103490348AFF3AE
:10020800008008BD0000000040000020F839000808
:10021800034613F8012B002AFBD1181A013870473E
:100228000A4BDA6C42F0200282B0DA64DA6C02F02F
:1002380020020092009ADA6C42F00102DA64DB6C68
:1002480003F001030193019B02B0704700100240C4
:1002580010B594B03822002106A803F08FFB1422B1
:10026800002101A803F08AFB002000F0FBF92223FB
:100278004FF4807006934023CDE90903012402233B
:10028800CDE90C435522042406A8CDE90F42CDE957
:1002980011340E93139300F045FA08B172B6FEE7D5
:1002A800CDE903000F2203230590214601A8CDE9DB
:1002B800012300F079FC08B172B6FEE714B010BD56
:1002C80008B500F0DDF8FFF7C3FFFFF7A9FF00F05E
:1002D80041F80021084603F0BFF900214FF0FF3034
:1002E80001F06EFFF9E700207047704772B6FEE72D
:1002F8000B4B1A6E42F0010282B01A661A6E02F0B7
:1003080001020092009A9A6D42F080529A659B6DA4
:1003180003F080530193019B02B000F0FBB900BFCA
:1003280000100240FEE7FEE7FEE7FEE7FEE7704743
:100338007047704700F0B4B8002002F0FBBD000021
:10034800034AD2F8883043F47003C2F88830704703
:1003580000ED00E0094808B5094B03604FF402734B
:1003680083800223C3710023836000F011F918B160
:10037800BDE80840FFF7BABF08BD00BF580000201D
:10038800005C004010B5044692B04422002101A848
:1003980003F0F4FA2268104B9A421AD14FF4005332
:1003A80001A8019300F0F4FC08B1FFF79FFF0B4B85
:1003B8009A6D42F400029A659B6D002203F40003D3
:1003C800009314201146009B00F08EF8142000F0D2
:1003D800BDF812B010BD00BF005C00400010024024
:1003E8000D488546FFF7ACFF0C480D490D4A002320
:1003F80002E0D458C4500433C4188C42F9D30A4AD2
:100408000A4C002301E013600432A242FBD303F03C
:10041800BDFAFFF755FFFEE700800020000000202E
:100428003C000020A83B00083C0000202C090020CC
:10043800FEE7000038B50F4B1A6805460AB90120D7
:1004480038BD4FF47A73B3FBF2F30B4A1068B0FB74
:10045800F3F000F089F804460028F0D10F2DEED80B
:10046800024629464FF0FF3000F03EF8034B204685
:100478001D60E5E7040000200000002008000020BF
:1004880010B5032000F01EF80F20FFF7D3FF044635
:1004980018B9FFF72DFF204610BD0124FBE7000027
:1004A800034A0449136809680B441360704700BF86
:1004B8003403002004000020014B1868704700BF77
:1004C800340300200749CA6822F4E06203021204D8
:1004D80003F4E063120C134343F0BF6343F40033A7
:1004E800CB60704700ED00E0164B30B5DC68C4F314
:1004F8000224C4F10703251D042B28BF0423062D5D
:100508004FF0FF358CBF033C002405FA03F321EAC2
:100518000303A54022EA0502A340002843EA020398
:10052800ACBF00F16040084A4FEA0313B8BF00F0BF
:100538000F00DBB2AABF00F56140135480F8003306
:1005480030BD00BF00ED00E014ED00E0002807DB3F
:10055800044A4109012300F01F00834042F821307A
:10056800704700BF00E100E00138B0F1807F0BD296
:100578004FF0E023054A5861F02182F8231000204B
:10058800072298611A6170470120704700ED00E06A
:1005980070B5044600284DD090F8913203F0FF0260
:1005A8001BB980F89022FFF7EDFE032384F89132FF
:1005B800206800F029FD0022257904F11003114676
:1005C8000126D0B2854203F1280317D8002104F58B
:1005D800A8730A46C8B2854203F128031AD8D4E999
:1005E8000112206800F01AFD00232373012384F808
:1005F8009132A37A012B19D0002070BD43E906116E
:1006080003F8276C03F8280C03F8251C43F8101C82
:100618000132D6E743E9062203F8272C03F8280C11
:1006280003F8252C43F8102C0131D3E7204600F0BD
:1006380003F8E1E70120E0E7034601210268C0F87A
:10064800D012002083F8C802B2F854309BB20B4392
:10065800A2F85430B2F854309BB243F00203A2F827
:1006680054307047284B1A6818BB02F4C062B2F5C0
:10067800806FD3F8802022F48072C3F8802040D1A4
:100688001A6822F4C06242F400721A601F4A1268A3
:1006980032214A431E49B2FBF1F201325969490538
:1006A80000D522B95B6958052BD503207047013A5C
:1006B800F4E7B0F5007F1FD102F4C062B2F5806F95
:1006C800D3F8802042F48072C3F8802019D11A68C8
:1006D80022F4C06242F400721A600C4A1268322195
:1006E8004A430B49B2FBF1F2013259694905D9D5A0
:1006F800002AD7D0013AF8E722F4C06242F48062B7
:100708001A600020704700BF007000400000002001
:1007180040420F00024A936843F480439360704755
:10072800007000402DE9F341044618B9012002B0D9
:10073800BDE8F0810368D90714D423689A0758D410
:100748002368190700F1A18023685A0700F1C880BF
:1007580023689A0600F12F81E369002B40F05C8141
:100768000020E4E79F4DAB68EA6803F00C030C2B0C
:100778000AD102F00303032B08D12B689B03DCD5B5
:100788006368002BD9D1D1E7082BF5E76368B3F587
:10079800803F10D12B6843F480332B60FFF78CFE29
:1007A80006462B689F03C8D4FFF786FE801B642883
:1007B800F7D90320BBE7B3F5A02F04D12B6843F486
:1007C80080232B60E6E72A6822F480322A602A68B0
:1007D80022F480222A60002BE0D1FFF76DFE064646
:1007E8002B689903A9D5FFF767FE801B6428F7D902
:1007F800DFE77C4DAB68EA6803F00C030C2B17D1DC
:1008080002F00303022B15D12B685A0502D5E368C1
:10081800002B8BD06B68226923F0FE4343EA026306
:100828006B60714B1868FFF705FE002888D07DE7DC
:10083800042BE8E7E368BBB12B6843F480732B60B3
:10084800FFF73AFE06462B685B0507D56B682269F9
:1008580023F0FE4343EA02636B6071E7FFF72CFE67
:10086800801B0228EFD9A4E72B6823F480732B6040
:10087800FFF722FE06462B685F057FF561AFFFF79D
:100888001BFE801B0228F6D993E76369554D9BB17F
:10089800D5F8943043F00103C5F89430FFF70CFE07
:1008A8000646D5F894309B073FF54EAFFFF704FE98
:1008B800801B0228F5D97CE7D5F8943023F0010392
:1008C800C5F89430FFF7F8FD0646D5F894309F0731
:1008D8007FF53AAFFFF7F0FD801B0228F5D968E7EE
:1008E800404DAB6DD80027D4AB6D43F08053AB655A
:1008F800AB6D03F080530193019B01273B4E336896
:10090800D9051BD5A368012B29D1D5F8903043F020
:100918000103C5F89030FFF7CFFD41F2883806464D
:10092800D5F890309B0740D5002F3FF411AFAB6D41
:1009380023F08053AB650BE70027DFE7336843F408
:1009480080733360FFF7B8FD80463368DA05D9D481
:10095800FFF7B2FDA0EB08000228F6D929E7052B1E
:1009680006D1D5F8903043F00403C5F89030CCE7B1
:10097800D5F8902022F00102C5F89020D5F89020F3
:1009880022F00402C5F89020002BC4D1FFF794FD93
:1009980041F288380646D5F890309907C4D5FFF754
:1009A8008BFD801B4045F6D903E7FFF785FD801BCB
:1009B8004045B5D9FDE6A3690A4DCBB1D5F89830C5
:1009C80043F00103C5F89830FFF776FD0646D5F8E1
:1009D80098309B073FF5C0AEFFF76EFD801B0228DD
:1009E800F5D9E6E60010024008000020007000403B
:1009F800D5F8983023F00103C5F89830FFF75CFD6F
:100A08000646D5F898309F077FF5A6AEFFF754FD48
:100A1800801B0228F5D9CCE6454DAA6802F00C02E5
:100A28000C2A51D0022B2B6823F080732B603AD10B
:100A3800FFF742FD06462B6899012ED4EA683D4B24
:100A48001340226A1343A26A43EA0223E26A43EA92
:100A5800C263626A013A43EA0213226B5208013AFE
:100A680043EA4253626B5208013A43EA4263EB603D
:100A78002B6843F080732B60EB6843F08073EB6066
:100A8800FFF71AFD04462B689A013FF569AEFFF798
:100A980013FD001B0228F6D98BE6FFF70DFD801B1E
:100AA8000228C8D985E6FFF707FD04462B689B0195
:100AB80004D4EA68204B1340EB6051E6FFF7FCFCD6
:100AC800001B0228F2D974E6012B3FF42FAEEB6825
:100AD800226A03F0030191427FF428AE616A03F0B1
:100AE800F0020139B2EB011F7FF420AEA16A03F4D2
:100AF800FE42B2EB012F7FF419AEE16A03F07842AF
:100B0800B2EBC16F7FF412AE226B520803F4C0013E
:100B1800013AB1EB425F7FF409AE626B5208013AC9
:100B280003F0C063B3EB426F14BF01200020FEE561
:100B3800001002400C809F01FCFFEEFE174B9A68E4
:100B480002F00C02042A23D09A6802F00C02082A48
:100B580020D09A6802F00C020C2A1DD1D968DA68F4
:100B6800D868DB6801F00301C3F341630329C2F3CA
:100B78000312C0F3062003F101030CBF0849094919
:100B88005B000132B1FBF2F25043B0FBF3F0704767
:100B98000448704702487047002070470010024020
:100BA80000127A000024F4002DE9F8430E460546A9
:100BB80010B90120BDE8F8836D4A136803F00F03EC
:100BC8008B4245D3296811F001084CD12A68910756
:100BD80040F1A780674B12F0040F1EBF996841F4DB
:100BE800E0619960120741BF9A6822F47C5242F48E
:100BF800E0629A609A68A96822F0F0020A439A6053
:100C08005B4C236803F00F03B34200F293802A6819
:100C1800584C12F0040F40F0A380130706D5A368C0
:100C28002A6923F4605343EAC203A360FFF786FFEF
:100C3800A368514AC3F30313D35C03F01F03D840DE
:100C48004E4B18604E4B1868BDE8F843FFF7F2BBEF
:100C5800136823F00F030B431360136803F00F03AB
:100C68008B42A6D1AEE76F68424C032F236849D167
:100C78009B019ED5E368E26803F00303032BE36856
:100C88000CBF40484048C2F30312C3F306230132A5
:100C9800B0FBF2F25343E268C2F341620132520000
:100CA800B3FBF2F3394A93421AD84FF00008A3680D
:100CB80023F003033B43A360FFF7FEFB41F28839AF
:100CC8000746A3686A6803F00C03B3EB820F3FF48E
:100CD8007DAFFFF7F1FBC01B4845F2D9032069E758
:100CE800A36813F0F00F04D08807DED5AB68002B9B
:100CF800DBD1A36823F0F00343F08003A3604FF037
:100D08008008D4E7022F09D113F4003F3FF451AF14
:100D1800FFF714FF1D4B9842C7D9EAE713F4806F19
:100D2800F4E7B8F1800F01BF124A936823F0F0038B
:100D3800936065E7236823F00F0333432360FFF7CD
:100D4800BBFB41F288380746236803F00F03B34220
:100D58003FF45DAFFFF7B0FBC01B4045F4D9BDE7DA
:100D6800A368E96823F4E0630B43A36055E700BF79
:100D78000020024000100240103A00080000002045
:100D88000800002000127A000024F40000B4C40413
:100D98002DE9F3410446006810F4002056D0984D20
:100DA800AB6DD80044D4AB6D43F08053AB65AB6DED
:100DB80003F080530193019B0126924F3B6843F453
:100DC80080733B60FFF778FB80463B68D90531D5D7
:100DD800D5F89030226C13F440731FD09A421DD07E
:100DE800D5F89020D5F8903043F48033C5F890308A
:100DF800D5F8903022F4407123F48033D207C5F837
:100E08009030C5F8901009D5FFF756FB41F28838A5
:100E18000746D5F890309B0740F1EB80D5F8903025
:100E2800226C23F440731343C5F89030002008E087
:100E38000026C2E7FFF740FBA0EB08000228C4D950
:100E480003201EB1AB6D23F08053AB652368DE072A
:100E580008D56B496568D1F8882022F003022A4337
:100E6800C1F888209D0708D56549A568D1F888206C
:100E780022F00C022A43C1F88820590708D5604996
:100E8800E568D1F8882022F030022A43C1F888208A
:100E98001A0708D55A492569D1F8882022F0C002D6
:100EA8002A43C1F888209F0608D555496569D1F8B5
:100EB800882022F440622A43C1F888205E0608D5BB
:100EC8004F49A569D1F8882022F440522A43C1F835
:100ED80088201D0608D54A49E569D1F8882022F4FA
:100EE80040422A43C1F88820D90508D54449256AD3
:100EF800D1F8882022F440322A43C1F888209A0584
:100F080008D53F49656AD1F8882022F440222A434F
:100F1800C1F888205F050FD53949A56AD1F888201E
:100F280022F440122A43C1F88820B5F5801F02BF79
:100F3800CA6842F48012CA601E050FD53049E56AB6
:100F4800D1F8882022F440022A43C1F88820B5F558
:100F5800800F02BFCA6842F48012CA60DD040FD550
:100F68002749256BD1F8882022F040722A43C1F81E
:100F78008820B5F1807F02BFCA6842F48012CA6037
:100F880099040FD51E49656BD1F8882022F040627C
:100F98002A43C1F88820B5F1006F02BFCA6842F43D
:100FA8008012CA605A040FD51549A56BD1F888205C
:100FB80022F040622A43C1F88820B5F1006F02BFD1
:100FC800CA6842F48012CA601B040FD50C4AE16B50
:100FD800D2F8883023F040530B43B1F1805FC2F858
:100FE800883003D1D36843F48033D36002B0BDE8BE
:100FF800F081FFF761FAC01B40457FF60AAF1FE793
:101008000010024000700040B0F8403023F47E53D6
:101018005B045B0CA0F840300020704782B00346A8
:1010280002A800E9060000200122A3F84020A3F846
:101038004000A3F84400A3F8500002B0704770477E
:101048007047704770477047704770472DE9FF41F8
:101058002A4C2B4E2B4F4FF4B4720021204602F03D
:101068008DFC4FF6087363814FF4E13804F1740383
:101078004025C4F8048000930023CDE901561A46A0
:101088001946039504F1200002F09AFB3B7803957A
:101098007219CDE9015204F134020092C3F38003BE
:1010A8000122002104F10C0002F08AFB164BC4F85F
:1010B800BC3006F18003C4F8B880CDE9015304F5CB
:1010C8009473009300231A461946039504F1D4003B
:1010D80002F076FB3B78039504F1E802C0360092F3
:1010E800CDE90156C3F380030122002104F1C000B9
:1010F80002F066FB04B0BDE8F08100BF38040020B0
:10110800380300200C000020000008FF10B5094C2F
:10111800204602F06BFBA4F1140002F067FB04F117
:10112800B40002F063FB04F1A00002F05FFB0120B1
:1011380010BD00BF5804002070B50E4C0E4E20465E
:1011480031780025C1F3800140F8145B00F0BCFC45
:10115800317884F82150C1F3800104F1C800657327
:10116800C4F8B45000F0B0FC84F8D55084F8C150ED
:1011780070BD00BF380400200C0000202DE9F74F97
:101188004B79022B80460E4615D18B79022B12D152
:101198005F4D95F821409CB16C7B8CB195F8D530AA
:1011A8006BB195F8C13053B14FF0E023D3F8F03D5F
:1011B800DC0700D500BE002003B0BDE8F08F012495
:1011C800B4236343E91805F80380B3784B70337888
:1011D800B71806EB030BBB459BF8011006D29BF82A
:1011E80000205A44974201D324292BD005290ED137
:1011F8005946404600F002FF0028D5D0B42202FB31
:1012080004529BF8021091709BF8002093449BF8BD
:101218000120042A7AD19BF805200A2A76D1B42322
:1012280014FB03F90023594600939BF804C09DF86A
:1012380000000A78844501EB020A05D8AAEB0600EB
:1012480080B2B9E79346C6E7B942F7D25745F5D316
:101258009AF801100529A7D19AF8031001F00301A3
:101268000229A1D15146404600F0C8FE00289BD073
:10127800BAF804109AF802E0C1F30A01A1F5007067
:10128800414241415FEADE101FD0B42303FB045002
:1012980090F80CC080F80DE061F3410C1D4980F80E
:1012A8000CC009788A070AD509F10C01294440467F
:1012B80002F0D0FA009B013300935146B5E709F1DB
:1012C8001400284400F0FBFBF4E7114809F1200C56
:1012D8000CEB00030193B42303FB040C8CF821E00E
:1012E8009CF820E061F3410E0A498CF820E0097867
:1012F800CB0704D409F12801084400F0E0FB019968
:10130800404602F0DDFA0028D4D14DE7DA4695E7E9
:10131800380400200C000020137803F06003202B11
:1013280070B50C4611464DD19388274A55789D4291
:101338000DD092F8B5509D4244D1B43201254B7876
:10134800203B032B3ED8DFE803F0041316340025B6
:10135800F5E7012C04D10723043201F0B1FA05E0C6
:10136800032C03D1111D2846FFF76EFE012070BD26
:10137800012CFBD1EFE7012C02D101F08FFAF5E740
:10138800032CF3D14B88D37003F00104C3F3400658
:101398000E4B197811F0040118BF84F0010102F115
:1013A800140000F091FB324621462846FFF74BFE19
:1013B800DCE7012CE1D0032CD8D149882846FFF777
:1013C80044FED3E70020D2E7380400200C000020B8
:1013D8002DE9F74F494C994694F821308B428046C5
:1013E8000E461FD0637B8B421CD0A3788B4200D162
:1013F800C1B994F8D530B34260D094F8C130B34243
:101408005CD094F8B630B34201D1002E56D14FF0DB
:10141800E023D3F8F03DDB0700D500BE002003B081
:10142800BDE8F08F0025B42315FB03F703FB054344
:1014380093F82120B24224D107F1200AA244BAF835
:101448000C203AB107F12800596A1FFA89F22044A2
:1014580000F0C0FA4FF0B40B0BFB054B9BF80B30B8
:10146800FF2B45D1BAF81020BAF8123092B29BB2CD
:101478009A4202D02846FFF7E2FD5146404602F064
:101488001FFAB42303FB05435B7BB3420ED10C3731
:1014980028462744FFF7D5FD3946404602F0DAF9D9
:1014A80020B94A463946404602F0A2F9B42303FB64
:1014B8000544A378B3421DD00120B0E70125B2E767
:1014C800DBF824109BF80B20C95C91420CD1BAF8C8
:1014D8001000BAF8122080B292B2904204D0284686
:1014E8000193FFF7ADFD019B01334B45E8D1B9E707
:1014F8000023FAE72846FFF7A5FDDDE738040020BA
:1015080070470120704770477047012070470000FE
:10151800024B0022C3E900229A607047600600204F
:101528000020FFF7F5BF0000F7B50D4607466B79B9
:10153800032B114628D12A79C2EBC2061236B6B25D
:101548008E421AD8224C6178B9B995F800C005EBDB
:101558000C0191F801E0BEF1210F0ED1A16015F840
:101568000CC004F1010ECDF804E004F1020ECDF830
:1015780000E0614400F064FD50B94FF0E023D3F877
:10158800F03DDA0700D500BE0026304603B0F0BDB6
:10159800AB79A178012B04BFEB79E3700123A37128
:1015A800AB782370A368B3F80730A3800029ECD088
:1015B800084A4023384600F08DFD0028E5D14FF059
:1015C800E023D3F8F03DDB07DFD500BEDDE700BF41
:1015D8006006002020060020F7B5164612780B4654
:1015E80002F01F010129074659D1524CB1882578CC
:1015F800C9B28D4253D112F060021ED1012B75D1B0
:101608007178738806294AD11B0A212B09D1A2684F
:10161800002A44D01378314603B0BDE8F04001F009
:101628004FB9222B3BD1104601F0E2FFA3880246B6
:101638003146384601F044F958E0202A2FD1727813
:10164800013A0A2A2BD8DFE802F00662662A2A2A1B
:101658002A2A2F536A00012B48D1F5887188364C05
:10166800402D4FEA1122284628BF402011F0FF01E3
:1016780018D0012D16D9013804F8011B80B21D4677
:10168800009023460020FEF72EFE2B189BB283B94C
:101698004FF0E023D3F8F03DDB0700D500BE002073
:1016A80003B0F0BD0025EBE7012B04D1F388402BF4
:1016B800F5D8214ABCE7032B18D1F48871881E4B52
:1016C800402C4FEA1122204628BF402011F0FF018C
:1016D80008D0012C06D91C788C4202BF00F1FF30DB
:1016E80080B2013300900020FEF7FFFD0120D7E70C
:1016F800012BFBD171880020090AE171FFF701FF76
:101708000028CCD03146384601F0C8F8EEE7012B66
:10171800ECD10A4A8CE7012BE8D1094A88E7012B6A
:10172800F0D0032BE2D171880020C9B2A171FFF774
:10173800E7FEDBE760060020A00500206706002022
:101748006606002037B51D4D04461046AA788A4221
:101758000BD06A788A4208D04FF0E023D3F8F03DE6
:10176800DB0700D500BE002009E06A788A429BB2F8
:101778000DD130B912491A46FFF7C5FE012003B052
:1017880030BD0F4A01210020FFF7BEFEF6E770B911
:10179800009302220B4B0146FEF7A7FD094AA978E0
:1017A8004023204600F096FC0028E7D1D4E7054AFC
:1017B80002210020FFF7A8FEF0E700BF6006002026
:1017C800E0050020200600200A4492B291424FEA28
:1017D800400001D8824201DB121A92B210467047CB
:1017E80038B50546D41A0846A988A4B29A423CBF1F
:1017F80004EB4104A4B2B4B1A14205D2914294BF12
:10180800521A521893B26B81994209D9EA88296809
:10181800C2F30E0202FB031102F0DCF8012038BD0E
:101828005B1A9BB2F0E72046F9E72DE9F047BDF8CF
:10183800204086881D1BADB2A3423CBF05EB460580
:10184800ADB207468846F5B1AE4206D29E4294BF75
:101858009B1B9B199CB244813546954228BF15466F
:10186800A64213D9FA883968A6EB04091FFA89F940
:10187800C2F30E0A4D4552460AFB041109D86A43C1
:10188800404602F0A7F82846BDE8F087A41BA4B29A
:10189800E6E719FB0AF91FFA89F94A464046AE1BE2
:1018A80002F098F8A21912FB0AF2396892B208EB12
:1018B8000900E6E7B2F5004F0DD882809DF80020B8
:1018C8000160C3F30E0343EAC233C380002343819C
:1018D80003810120704700207047024680881389E1
:1018E80052899BB292B2934236BFC2EB40029B1A16
:1018F8009B189BB2984228BF1846704703894289B3
:10190800818892B29BB2934236BFC2EB41029B1AC6
:101918009B189BB299428CBF002001207047038915
:101928004189828889B29BB28B4236BFC1EB4201A2
:101938005B1A5B189BB29A4286BFD01A80B200200D
:1019480070470289438910B59BB2044692B2FFF7EB
:1019580047FF61890346024689B2A088FFF734FF32
:101968006081184610BD37B503894589ADB2044674
:1019780000959BB2FFF759FF61890346024689B279
:10198800A088FFF721FF6081184603B030BD70B50D
:10199800058904460E46ADB2FFF7B0FF10B1E079F5
:1019A800C00913D0A3882846834210D9E288236847
:1019B800C2F30E02314602FB003002F00BF8A08899
:1019C80001222946FFF700FF2081012070BDC01ABF
:1019D80080B2E9E72DE9F84F074688461446002A01
:1019E80031D0C379068941898588DB09B6B289B2C5
:1019F8002CD18E4235BFC1EB4503711A9B198BB2AE
:101A080038BF9BB2AB4256D2EB1A9BB29A4228BF60
:101A18001C46B146A94537D2FA883868A5EB090AA9
:101A28001FFA8AFAC2F30E0BA2455A460BFB0900AD
:101A38002FD36243414601F0CDFFB8882246314694
:101A4800FFF7C2FE38812046BDE8F88FAA4209D3C5
:101A58009DB3C388541BC3F30E0303FB04880E46CF
:101A68002C46D6E78E424FEA450236BF531A731A00
:101A78009B199BB223449342CBDB2A1B92B2284684
:101A8800FFF7A2FE0646C4E7A9EB05091FFA89F984
:101A9800C0E71AFB0BFA1FFA8AFA52464146651B41
:101AA80001F098FF09EB050212FB0BF2386892B2BD
:101AB80008EB0A01BFE70024C5E72C46C3E700236B
:101AC8004381038101207047C379B1EBD31F1CBF49
:101AD80061F3C713C371012070470A46018908B52D
:101AE80089B203468088FFF76FFE188108BD0A4651
:101AF800418908B589B203468088FFF765FE588199
:101B080008BD70B5048943898588A4B29BB29C42FC
:101B180036BFC3EB4502E21A121992B2954205D2BA
:101B2800A54209D8631B9BB243812A46B2B9C1E9D1
:101B380000220020886070BD2B199BB243812A4681
:101B48009D420ED90068A34200EB03064E600BD2FB
:101B580000230A804B80ECE7641BA4B2A542FBD9A2
:101B6800EEE75B1B9BB2EBE7521BEC1A13440C80AD
:101B78004B80DFE70389428970B59BB292B28588B2
:101B8800934236BFC2EB45049C1AE418A4B2A5429E
:101B980007D80023C1E900330020886070BD5B1BB3
:101BA8009BB29D42FBD995420AD900689A4200EB44
:101BB80003064E6007D9D21A00230A804B80EBE750
:101BC800521B92B2EFE7ED1A1B1B0D804B80E4E726
:101BD800002070472DE9F0411D4E1E4FDFF884802C
:101BE8000546002431788A1CE3B2D2B29A4210D852
:101BF80034220021184801F0C1FE1022FF211748A5
:101C080001F0BCFEBDE8F04115481022FF2101F0AB
:101C1800B5BE99420ED9D8F80020242101FB032330
:101C280083B94FF0E023D3F8F03DDB0700D500BEC1
:101C3800BDE8F0815B1ADBB2012BF2D803EBC303DA
:101C480007EB8303DB68284698470134CAE700BFDF
:101C580030070020203A0008390700203D070020FF
:101C68004D0700203407002070B50C46054616467F
:101C7800486900F057FE6369324628460121BDE8ED
:101C880070401847034A034610780BB100F08CBF28
:101C980000F0A8BF20000020704770470020704760
:101CA80000207047002070477047704770477047A2
:101CB80003460020187070472DE9F84FDFF8C880F8
:101CC80098F80030FF2B05460E4646D149B94FF02B
:101CD800E023D3F8F03DDB0700D500BE0020BDE8C7
:101CE800F88F342200212248224FDFF8A09001F01B
:101CF80045FE214B214800241C70FFF7E0FE204BD5
:101D0800204A1A603846FFF7D3FF3B78C9F800002D
:101D1800FD2BDCD8DFF878A04FF0240B0CE09942BB
:101D28001DD9D9F800200BFB0323002BCFD05B680B
:101D38000134002BCBD0984739788A1CE3B2D2B251
:101D48009A42ECD83146284688F8005001F096F8B7
:101D58000028BCD0284600F027FF0120BFE75B1A07
:101D6800DBB2012BB3D803EBC3030AEB8303DEE733
:101D78003907002030070020380700201400002011
:101D88006C060020100000202000002034070020EE
:101D9800203A00082DE9F0434378023B85B0044619
:101DA8000D46052B16D8DFE813F00600B7002A0009
:101DB8003200CE00D3008B4B1A7822F001021A7041
:101DC8001A78002122F002021A7059701A7861F309
:101DD80082021A70844B1F6815B93B6828469847D9
:101DE8002146381DFFF7D3FD064615B93B6801208B
:101DF8009847002E77D0617820782A46A0E0794B62
:101E08001A78D70776D51A7842F00402E1E7754ABE
:101E18001378DE076ED5137823F004031370D9E71F
:101E280099426AD9D9F80020242101FB0323002B09
:101E38006BD1013639788A1CF3B2D2B29A42EFD804
:101E4800684E337858072CD5337823F00403337061
:101E58000023CDF80630CDF80A30ADF80E302378DF
:101E68008DF8043005238DF805305F4BD3F80080DA
:101E78001DB9D8F800302846984701A908F1040090
:101E8800FFF785FD07461DB9D8F8003001209847AF
:101E9800002F48D14FF0E023D3F8F03DD90700D503
:101EA80000BEF378DA0725D50023CDF80630CDF843
:101EB8000A30ADF80E3023788DF8043003238DF8FE
:101EC800053063680293484B1E6815B93368284685
:101ED800984701A9301DFFF75AFD044615B9336824
:101EE800012098473CBB4FF0E023D3F8F03DDB07D7
:101EF80000D500BE05B0BDE8F0835B1ADBB2012B4C
:101F080097D803EBC30308EB83031B6A002B90D01D
:101F18006168207898478CE7344FDFF8DC80DFF879
:101F2800D490002686E79DF805109DF804002A46FF
:101F3800FFF7B2FEB5E79DF805109DF804002A46A4
:101F4800FFF7AAFED6E72A4A13780133DBB265E722
:101F5800017911F00F033FF43DAF224E234A5F0091
:101F680006EB430303EBD11312781B7D93424FEA30
:101F7800D1102BD21F4A126803EBC30312EB830361
:101F88003FF428AFD3F81C80B8F1000F3FF422AF1C
:101F98003E440644627996F8243023F0010386F81B
:101FA800243096F8243023F0040386F8243020786F
:101FB800A3682036C04700289CD1337943F0010339
:101FC8003371337943F00403337103E79B1ADBB2AF
:101FD800012B3FF6FFAE084A03EBC30302EB830372
:101FE800D0E700BF390700206C060020300700202A
:101FF8003807002034070020203A000838B58A78CE
:102008000D4B12F008021D780C4608D04FF0E02363
:10201800D3F8F03DDB0700D500BE002038BD074BE4
:102028002046997801F076FB0028EFD02146284613
:10203800BDE8384001F0C0B9200000203907002071
:102048002DE9F047DDE9086781460C4690469A4637
:102058000025A84501DC01200AE06378052B09D09A
:102068004FF0E023D3F8F03DDB0700D500BE002099
:10207800BDE8F087E37803F003035345F0D1214628
:102088004846FFF7BBFF0028EAD0A378DA0914BF57
:102098003B703370237801351C44DAE7CB0901F033
:1020A8000F020448243303EB42030021184401F0D3
:1020B80005BB00BF39070020CB0901F00F02044817
:1020C800243303EB42030021184401F012BB00BF84
:1020D8003907002070B5134C134801F00F0604EBC4
:1020E800460404EBD114203425790078ED0708D58F
:1020F8004FF0E023D3F8F03DDB0700D500BE002009
:1021080070BD257945F00105257101F0E1F9002838
:10211800F6D1227960F300022271227960F38202FB
:102128002271E5E7390700202000002010B50C4B8C
:1021380018780C4601F0E8F90A4904F00F0301EB9E
:10214800430101EBD41191F8243043F0020381F8E4
:10215800243091F8243043F0010381F8243010BD75
:10216800200000203907002010B50C4B18780C46C9
:1021780001F0FEF90A4904F00F0301EB430101EBFA
:10218800D41191F8243023F0020381F8243091F817
:10219800243023F0010381F8243010BD20000020F2
:1021A80039070020054B01F00F0203EB420303EB54
:1021B800D11191F82400C0F340007047390700207E
:1021C8002DE9F04F9C4B1B78FF2B87B03FD0DFF8F1
:1021D80074929A4B1D682C46002054F8043B98478B
:1021E800204603A9FFF7ADFB2B680446012098475A
:1021F8006CB39DF80D30013B072B00F20483DFE838
:1022080013F008001300F902DE02EA021C00A10222
:10221800F2029DF80C00FFF7DDFC00F07BFB9DF857
:10222800103089F80230D4E79DF80C00FFF7D2FC93
:1022380000F070FBFFF739FDCBE7814A13784BB903
:102248004FF0E023D3F8F03DDC0700D500BE07B01F
:10225800BDE8F08F1378013BDBB21370137803F0FD
:10226800FF00002BB5D1774C9DF80C50237843F034
:102278000103237094F8243060F3000384F82430B9
:1022880094F8243060F3820384F8243094F82530DD
:1022980060F3000384F8253094F8253060F3820356
:1022A80084F8253000F03EFB9DF8103003F0600202
:1022B800602A07D14FF0E023D3F8F03DDD072CD595
:1022C80000BE2AE0402A0BD15F4800F02BFB04AA8D
:1022D80001212846FFF77CFC00287FF47AAF1CE038
:1022E80003F01F03012B00F09681022B00F0CB8135
:1022F800002BDFD1202A29D19DF814300F2B0CD8C0
:1023080023441979514B1B78994211D2504B1B68C1
:1023180001EBC10113EB810113D19DF80C000021E1
:1023280001F0F2F89DF80C00802101F0EDF850E77B
:10233800C91AC9B20129F0D8464B01EBC10103EB18
:10234800810104AA2846FFF78FFCC5E7002AB1D10E
:102358009DF81130092BADD801A252F823F000BF27
:10236800FD250008EB250008BD220008D725000838
:10237800BD220008912300082F250008BD2200086F
:10238800AB230008B523000804A800F0D1FA9DF893
:102398001210284601F0B2F8237843F002032370A4
:1023A80017E763788DF80A3001232DE19DF8126054
:1023B80063789E4211D063785BB10021284600F013
:1023C800A7FD284601F062F8A7782846FFF702FC27
:1023D800A770667036B9FFF768FC04A9284600F0B4
:1023E8005DFAF6E6701EC0B201F006F910B1437846
:1023F800022B09D04FF0E023D3F8F03DDB0700F1C2
:1024080090800023637055E7C379C3F38012C3F348
:1024180040131B0143EA4213227822F0300213438F
:1024280023704388C31800F109070093009BBB423F
:1024380012D8FFF739FCD0E7200000206C060020F6
:102448003807002039070020D91B00083007002072
:1024580034070020203A00087B780B2B03BF3B7819
:1024680097F803A0FF184FF0010A7B78042BC1D11D
:10247800009BDB1B9BB24FF0000BAD4A1678B21CD9
:102488005FFA8BF8D2B24245B4D946452ED9A94A4B
:102498001668242202FB0866002EABD01A46019368
:1024A80039463369284698470828019B024635D99A
:1024B800834233D3BAF1010F05D131699E4B99425A
:1024C80008BF4FF0020A0021CBB29A451AD84346FA
:1024D80039469A48019201F061F9954B019A1B78A7
:1024E8000233DBB243451744A0D883E7A8EB0606BE
:1024F800F6B2012E3FF67EAF914A06EBC60602EB16
:102508008606CBE7B878034454FA83F30131187987
:10251800FF287FF46FAF83F80480D5E70BF1010B38
:10252800ABE700BE6DE7BDF812301A0AD8B2531EE9
:102538000E2B3FF6F2AE01A151F823F081250008D9
:10254800A3250008BD25000823230008232300082D
:10255800D1250008A3250008232300082323000809
:10256800232300082323000823230008232300082B
:10257800232300089925000801F036F802460028B0
:102588003FF498AE122304A9284600F099F9A3E66F
:10259800FFF784FB024640B9BFE6022A07D101F0E3
:1025A8002BF8024600283FF485AE5388EBE7FFF787
:1025B80079FBEFE7BDF8141001F022F80246002875
:1025C8003FF4ABAE0378DEE7FFF76AFBF6E7BDF84A
:1025D8001230012B7FF4A1AE237843F00803237057
:1025E800FBE6BDF81230012B7FF497AE237823F079
:1025F8000803F4E72378C3F340129B0803F00203AF
:102608001343ADF80A3002230DF10A0204A9284643
:1026180000F056F9DDE59DF814300F2B3FF67DAE3E
:1026280023441979424B1B7899421ED2414B1B68AF
:1026380001EBC10113EB81013FF46FAE04AA2846F8
:10264800FFF712FB00287FF4C4AD9DF8103013F09B
:1026580060047FF462AE00F065F99DF811300A2B32
:102668000ED00B2B3FF4B9AE57E6C91AC9B20129EF
:102678003FF653AE324B01EBC10103EB8101DDE7BD
:102688008DF80A4090E69DF814100F073FF512AE3A
:1026980001F00F0304EB4303254803EBD113007843
:1026A8001B7D834215D22348066803EBC30306EB60
:1026B8008306EAB99DF8113003F0FD02012A1BD008
:1026C800002B7FF4F7AD2846FFF76CFDADF80A0044
:1026D80099E71B1ADBB2012B00F29E80184E03EB20
:1026E800C30306EB8306002AE4D004AA314629E690
:1026F800002E3FF412AEF8E7BDF8122022B9012BE4
:10270800284612D1FFF730FD002E3FF462AD314666
:1027180004AA2846FFF7A8FA002000F003F994F865
:102728002530DE073FF555AD57E6FFF7FFFCEBE731
:102738003007002034070020851100084D070020CD
:10274800203A00089DF8101001F00F0409EB44022C
:1027580002EBD11292F8243023F0010382F82430DE
:1027680092F8243023F0040382F824303CB9059B06
:102778009DF811209DF80C0000F0E8F829E5137D7C
:10278800284A127893420FD2274A126803EBC303F0
:1027980012EB83033FF454AD9C699DF81120059B0F
:1027A8009DF80C00A04714E59B1ADBB2012B3FF6FD
:1027B80047AD1E4A03EBC30302EB8303ECE799F82A
:1027C8000030D8077FF505AD99F80000C0F3C000C8
:1027D800FFF76CFAFDE499F80030D9077FF5F9ACFA
:1027E800FFF765FAF5E4049B002B3FF4F2AC05987B
:1027F8009847EEE499F80330DA077FF5EAAC0498D5
:10280800FFF74BFAE5E44FF0E023D3F8F03DDB07A0
:102818007FF5DFAC00BEDCE4002A7FF47EAD002645
:1028280048E700BF3007002034070020203A00089E
:10283800144B9989DA8970B58C1AA4B2054693F9B4
:102848000000402C28BF402400280FDA914213D002
:102858009968A1B10C48224601F0BCF880210A4AC7
:1028680023462846BDE87040FFF734BC91424FF03C
:102878000001F4D10A46F3E780210022F0E7084678
:1028880070BD00BFB007002070070020C9430023B7
:102898001A4601F08001FFF71DBC000030B4074C58
:1028A80005460B4608684968224603C20022C4E967
:1028B80002222846197830BCFFF7E8BFB00700208D
:1028C800F8B5134E0C46054608684968B2603746A5
:1028D80003C70021F181E1888B4228BF0B46B381F1
:1028E80089B14BB142B94FF0E023D3F8F03DDB0793
:1028F80000D500BE002005E02846FFF799FF002814
:10290800F1D00120F8BD21782846FFF7BFFFF6E790
:10291800B007002002481422002101F02FB800BFA0
:10292800B0070020014B1861704700BFB0070020B6
:1029380010B50246044C00685168234603C30023BF
:10294800C4E9023310BD00BFB007002070B5284CA1
:102958001E462378C909B1EBD31F054613D03EB1F3
:102968004FF0E023D3F8F03DDB073FD4002070BDE3
:10297800214600F00BFD23691BB12246032128469E
:1029880098470120F3E794F90030A068002B05DB95
:102998000028EBD01749324601F01CF8A268E389F9
:1029A80032443344A260E2889BB29A42E38101D068
:1029B8003F2E17D8236933B921782846FFF766FFD9
:1029C8000028DED1CCE70221094A2846984701466B
:1029D8000028F1D1284600F097FD8021284600F014
:1029E80093FDCEE72846FFF723FFE9E700BEBDE7E2
:1029F800B0070020700700201E4AF0B5C40900F097
:102A08000F050023164604F1020C84F0010E12F89B
:102A18000C70D8B237B157788F421DD11778AF42B2
:102A28001AD1F0BD012904D106EB83077744BF789A
:102A380097B91778FF2F01D0AF420DD15778FF2FE4
:102A480008D106F8235006EB83030122597023446A
:102A58009A70E6E78F42F4D00133082B02F10402A2
:102A6800D5D14FF0E023D3F8F03DDB0700D500BE09
:102A78000020D6E7C707002000F18040530800F582
:102A8800C040F0B50D4606461C46013C06D2D207AA
:102A980044BF11F8132020F81320F0BD35F8027B4D
:102AA80026F8027BF1E701F18041530801F5C041A6
:102AB800F0B506460D461C46013C06D2D20744BF77
:102AC80031F8132000F81320F0BD35F8027B26F802
:102AD800027BF1E73E280E498BBF1F300130C0F35F
:102AE8004713C0F3470308888CBF2022022203FB48
:102AF80002039BB2B3F5806F0B8008D94FF0E02337
:102B0800D3F8F03DDB0700D500BE4FF6FF707047E5
:102B1800C40700201F4A38B50023A2F84C301E4ACB
:102B2800FF211D460133082B117051709570D57027
:102B380002F10402F6D10021184B402408461C80FB
:102B4800FFF75AFF8020FFF757FF154B20469D736C
:102B58009D779C819C83FFF7BDFF85B22046FFF7D8
:102B6800B9FF10490B4A8D8080B20880138823F47E
:102B7800786323F00F035B045B0C83F4085383F042
:102B880020034FF48050C88013808023A2F84C3073
:102B980038BD00BF005C0040C7070020C407002004
:102BA800E80700200060004030B5BFF34F8FBFF347
:102BB8006F8F0A490A4C0322012011F9013B002BAF
:102BC80006DB5D0903F01F0300FA03F344F8253020
:102BD800531E13F0FF02F0D130BD00BF683A000861
:102BE80000E100E030B50C480C4D0322012410F937
:102BF800013B002B0BDB5909203103F01F0304FABA
:102C080003F345F82130BFF34F8FBFF36F8F531E87
:102C180013F0FF02EBD130BD683A000800E100E094
:102C28002DE9F04F438904898289D0F804B0E41A69
:102C3800A4B2944228BF1446504A32F821801FFAA1
:102C480088F808F4C0628BB048F40047B2F5806F8A
:102C580047F08007019208BFC7F3801A4FEA410284
:102C680018BF4FF0000A894604920AEB4102444912
:102C780031F822500646ADB2BBF1000F74D0002CDB
:102C880049D007A95846FEF73CFFBDF81C10BDF80F
:102C98001E20A14228BF2146631A9BB2934228BF37
:102CA8001346CA18984693B221F00100029301F026
:102CB800010382B20899039320B128460592FFF7D1
:102CC800DBFE059A039B1544A8B2099DC3B18A5C33
:102CD800ADF81A20B8F1000F09D015F8011B08F15A
:102CE800FF3342EA0122ADF81A201FFA83F80222C4
:102CF8000DF11A010390FFF7BFFE0398023080B26E
:102D0800B8F1000F03D042462946FFF7B5FE0299F5
:102D18005846FEF7ECFE738923447381049B5344A1
:102D28009B0003F1804303F5C043C4F309045A88A8
:102D380002F47C4222435A80019BB3F5806F04BFA2
:102D48000123F3730020FFF74DFF87F030070B4B8B
:102D580027F4E04727F04007002023F829700BB03C
:102D6800BDE8F04FFFF720BF002CD4D00168224601
:102D780019442846FFF780FECDE700BF005C0040FD
:102D880000600040344A38B50B4601EB400102EBC5
:102D98000111012B8C7B07D102EB4010214610302A
:102DA800FFF73EFF012038BD2C4902EB401031F8F7
:102DB800245002898089ADB225F48041824221F0F5
:102DC800700105F4C06528BF024641F40041B5F51D
:102DD800806F41F080014FEAC40024D13E2A89BFA8
:102DE8001F3201320123C2F3471298BFC2F34702D0
:102DF800D21ADB0343EA82239BB200F18040002B06
:102E080000F5C04008BF4FF400434380C380002052
:102E180081F44055FFF7E6FE104B002023F82450BC
:102E2800FFF7C2FEBEE73E2A89BF1F3201320123E7
:102E3800C2F3471298BFC2F34702D21ADB0343EA30
:102E480082239BB2002B00F1804008BF4FF400435F
:102E580000F5C040DAE700BFE8070020005C00404A
:102E6800054AB2F858306FEA43436FEA53439BB2BE
:102E7800A2F85830704700BF005C00401FB50446F8
:102E880000230193019BC72B34D9204A0323A2F8BE
:102E9800403000230293029BC72B2FD9B2F8403051
:102EA80023F002031B041B0CA2F8403000230393F9
:102EB800039BC72B26D9154B0022A3F84020A3F863
:102EC8005020A3F844201A809A801A819A811A8285
:102ED8009A821A839A83B3F8402092B242F45D42F0
:102EE800A3F84020FFF716FE2046FFF7B9FF0120A0
:102EF80004B010BD00BF019B0133C2E700BF029BB5
:102F08000133C7E700BF039B0133D0E7005C0040F3
:102F1800074AB2F8403029B19BB243F40073A2F8D3
:102F28004030704723F400731B041B0CF7E700BF05
:102F3800005C00402DE9F04F8E4BB3F84420970514
:102F48008FB01FFA82FB10D54FF6FF52A3F844202A
:102F5800B3F848304FF44072C3F30A0301210BA8B9
:102F6800ADF82C200C93FEF715FF1BF4806F814AF7
:102F780013D04FF6FF33A2F84430FFF7CBFD4FF4E0
:102F88008073ADF82C30012100230BA88DF8303068
:102F9800FEF700FF0FB0BDE8F08F1BF4805F1BD079
:102FA800B2F8403023F004031B041B0CA2F8403095
:102FB800B2F8403023F008031B041B0CA2F8403081
:102FC8004EF6FF73A2F8443001214FF4A0630BA81A
:102FD800ADF82C30FEF7DEFE1BF4006F1AD0654BFF
:102FE800B3F8402092B242F00802A3F84020B3F8A8
:102FF800402092B242F00402A3F840204FF2FF7240
:10300800A3F8442001214FF480630BA8ADF82C30BD
:10301800FEF7C0FE1BF4807F16D057490A78012AB4
:103028000BD15448B0F8403023F010031B041B0C9C
:10303800A0F84030013A0A7001E0002AFAD14D4B5D
:103048004FF6FF62A3F84420DFF830A1494BB3F8EC
:1030580044301A040FD41BF4804F9BD04FF0E02368
:10306800D3F8F03DDB0700D500BE424B4BF6FF72AC
:10307800A3F844208EE73F4BB3F8447007F00F07DE
:10308800BC0004F1804404F5B84423889AB21E04B5
:10309800029227D5150575D5FB0003F1804303F58A
:1030A800C043DD889988C5F3090589B21DB12A4650
:1030B80009A8FFF7F8FC238823F070031B051B0DF4
:1030C80043F08003082D238047D1DDE909014FF43F
:1030D800C063ADF82C300EAB03E9030001210BA847
:1030E800FEF758FE029B1906B0D52388234823F41F
:1030F800E14323F070031B041B0C43F400432380BB
:10310800218801F00F028BB201F4C061B1F5806F24
:103118004FEA421114D14418E57F002D96D083F070
:103128004003C3F3801303EB47039B0003F1804381
:1031380003F5C0430025E5775C8804F47C445C8093
:103148004318598B1B8B8B4200F00D8100EB42100A
:1031580039461030FFF764FD78E74FF0E023D3F8E5
:10316800F03DD80700D500BE054B4FF48052DA80F9
:10317800B8E700BF005C0040C6070020E807002051
:1031880000600040238823F070031B051B0D43F0EB
:103198008003238023889AB203F00F0903F4C063E5
:1031A800B3F5806F049304BF134683F480430392FE
:1031B80008BFC3F38033744A18BF012303EB4703E6
:1031C80002EB8301B1F8028032F823500AEB49136D
:1031D800C8F3090859680091ADB24FEA49120029AD
:1031E80000F08480B8F1000F32D00BA90098FEF7E8
:1031F800C1FCBDF82C30BDF82E20434528BF4346FE
:10320800A8EB0306B6B2964228BF16469A1992B2A0
:10321800069223F0010291B201910C99059103F0F5
:10322800010332B1019A059807932946FFF73BFC41
:10323800079B019A1544ADB2002B42D10D981EB1DF
:1032480032462946FFF72FFC06990098FEF745FC01
:103258000AEB49134FEA491559899A89414489B2B9
:103268009045598102D31B8999424BD33E2A8BBF83
:103278001F320132012300238CBFC2F34712C2F36D
:103288004702D21ADB0343EA8223FA009BB202F117
:103298008042002B02F5C04208BF4FF4004355445A
:1032A800D38000264FF4E0630D910BA80121ADF8FF
:1032B8002C308DF830908DF83160FEF76BFDAE60E4
:1032C80010E72946022209A8FFF7EDFB059A0199A4
:1032D800BDF82430535402350D98ADB21B0A002EA8
:1032E800B2D0013E00F8013BB6B2A8E7B8F1000F32
:1032F800AED05AF802005B89424629461844FFF7C7
:10330800D2FBA5E70498B0F5806F1ED05B1A9BB27C
:10331800934228BF13463E2B8BBF1F330133012234
:1033280000228CBFC3F34713C3F347039B1AD2038E
:1033380042EA8323FA009BB202F18042002B02F595
:10334800C04208BF4FF40043D380039B23F480435B
:1033580023F0700343F4004343F0800383F44053A5
:103368009BB22380BEE64FF4E061ADF82C1062F00A
:103378007F020D93012100230BA88DF830208DF8D2
:103388003130FEF707FD61E6006000400B785B0610
:1033980009D14B78052B06D14B88054A63F07F038A
:1033A800DBB2A2F84C30034B4FF48052DA807047FE
:1033B800005C0040006000402DE9F8430F468C781F
:1033C800B1F80490C978204601F00301FFF714FB17
:1033D8000728054609D94FF0E023D3F8F03DDB076D
:1033E80000D500BE0020BDE8F883254B33F8203017
:1033F80023F4786304F00F0823F00F0348F4004621
:103408005B045B0C46F080061E43FB7803F0030365
:10341800022B03D0032BDED146F4C066C9F30A0998
:103428004846FFF757FBE40984F00103154A03EB0C
:10343800450380B222F82300134B04EB480803EB42
:103448000813012CA3F80C909D734FF0020414BFCD
:103458000C23042304FA03F484EA06044FF0000062
:103468000CBF24F4E04424F07004FFF7BBFB044BCA
:10347800A4B2002023F82540FFF796FB0120B2E70D
:10348800005C004000600040E807002038B50446B2
:103498000C4DFFF7A7FB0C4B01220021FF2025F85C
:1034A80022100132082A187158719971D97103F1E3
:1034B8000403F4D12046FFF777FB044BC0221A809F
:1034C80038BD00BF005C0040C7070020C4070020CB
:1034D80001F00F0070B44400074D04EBD11426012D
:1034E80005EB0414AA510022626023816281C90994
:1034F80070BCFFF747BC00BFE807002000231A464E
:103508008021FFF7E5BF000038B501F00F03164A28
:103518005B0003EBD11302EB0313C9099D7B134B2B
:1035280033F825309BB214BF23F4E04323F48043DF
:1035380048F2800215BF23F0400323F070031343C1
:10354800134314BF04220C220124944000205C4041
:10355800FFF748FB054BA4B223F825400020BDE83F
:103568003840FFF721BB00BFE8070020005C00409F
:1035780038B501F00F035B00C80903EBD111184BF4
:1035880003EB011301289D7B164B33F8253048F6D1
:10359800BF719BB24BF68F7212BF4FF480440A463C
:1035A800402443F4004343F0800314431C4004F4D4
:1035B800C063B3F5806F06D0012814BF0C22042223
:1035C800022393405C400020FFF70CFB054BA4B29C
:1035D80023F825400020BDE83840FFF7E5BA00BFD2
:1035E800E8070020005C004000487047843B000862
:1035F80000487047423B0008004870479C3A000862
:1036080010B568B9124B1B681A88124B5A800123EF
:103618000133DBB20F485B0043F44073038010BDF5
:10362800052813D80A4B53F820402046FCF7F0FD34
:10363800C3B21F2B28BF1F23064A2046E118884221
:10364800E6D010F8014B22F8024FF8E70020E6E731
:1036580024000020E808002013B50B4699B901247E
:1036680001A91846ADF80440FEF726FB40B94FF013
:10367800E023D3F8F03DDA0700D500BE02B010BD54
:103688000D4B1C70FAE7012801D80B7843B94FF0AD
:10369800E023D3F8F03DDB0700D500BE0020EDE7BE
:1036A800054C012B235401D00120E7E7FEF704FB6A
:1036B8000028F9D1EBE700BF28090020037802466B
:1036C80013F0010011D11378C3F380015B070FD405
:1036D800137813F001000AD113785B0708D4137824
:1036E80043F0040313700120704700207047084618
:1036F800704702780346C2F38000520709D51A784A
:1037080012F0010104D11A7861F382021A7070472D
:103718000020704730B5C478858804F00304022C73
:10372800C5F30A030CD0032C31D0012C14D1022983
:1037380040F2FF3208BF4FF480629A4216D204E08A
:1037480002290BD1B3F5007F10D04FF0E023D3F856
:10375800F03DDA0700D500BE002030BD42B1B3F518
:10376800007F05D140230371002343710120F4E752
:10377800202B0AD815F4FF6FE7D0074A083B9BB205
:1037880022FA03F3DB07F1D4DFE7402BDCE7022959
:1037980018BF4022CEE700BF0101000130B50A443E
:1037A800914200D330BD4C78052C06D18C7804F0BA
:1037B8000F0500EB4505E4092B550C782144EFE78C
:1037C80013B5027861F300020446049900F8082B47
:1037D8000093BDF814200123FEF76CF8069B636084
:1037E800BDF81C306380012002B010BD0120704775
:1037F800F8B50F780E8A0C46498A17F0020FB6B250
:1038080089B20CBF40234FF400738E42054601D0A5
:103818000020F8BD002AFBD0013B1342F8D1FA077B
:10382800F6D46178FEF73AFC0028F1D0237813F03B
:10383800010307D04FF0E023D3F8F03DDB07E7D5CD
:1038480000BEE5E761781A462846FEF743FC0028E3
:10385800DFD1EFE770B501F10805064628460C46AA
:10386800FEF73BF8B8B12378D80714D4617830460E
:10387800FEF714FC78B1284662886168FEF773F891
:1038880023780546A8B1D90707D54FF0E023D3F828
:10389800F03DDA070BD4002070BD034662686178FA
:1038A8003046FEF717FC0028EFD02846F4E700BEA4
:1038B800F1E7DB07EFD461783046FEF7FDFBEAE776
:1038C8008A89F8B50B7806460C46F2B9DF070ED49C
:1038D8004978FEF7E3FB50B122786388D50708D50D
:1038E8004FF0E023D3F8F03DDA0700D500BE002002
:1038F800F8BD61783BB162683046FEF7EBFB002803
:10390800EED06088F4E71A46F6E701F1080713F0ED
:10391800020F38460CBF40254FF40075FDF7FFFF36
:103928008542E4D82378D807E1D461783046FEF799
:10393800B5FB0028DBD03846FDF7F1FF8542237838
:1039480015D8D9076288CBD46D420540ADB29542EF
:1039580028BF1546617845B162682B463046FEF7A8
:10396800B9FB0028BCD02846C2E72A46F5E7DB07A2
:10397800BDD461783046FEF79FFBB8E702440346A2
:10398800934200D1704703F8011BF9E770B50D4D5C
:103998000D4C641BA4100026A64209D10B4D0C4CFB
:1039A80000F026F8641BA4100026A64205D170BDBD
:1039B80055F8043B98470136EEE755F8043B98471D
:1039C8000136F2E7A03B0008A03B0008A03B000836
:1039D800A43B00080A44914200F1FF3300D170472C
:1039E80010B511F8014B03F8014F9142F9D110BD00
:1039F800F8B500BFF8BC08BC9E467047F8B500BFD4
:083A0800F8BC08BC9E467047A3
:103A1000000000000000000001020304060708097E
:103A200000000000551000081511000841110008A1
:103A30008511000821130008D913000800000000B8
:103A40000000000000000000291500081315000800
:103A50001915000831150008E11500084D17000878
:103A6000000000000000000013142A4D79436F6D20
:103A700070616E7900437573746F6D20436F6E745F
:103A8000726F6C6C657200313233343536004344EA
:103A90004320300043444320310009040902A600BA
:103AA000050100A032090400000103000000092103
:103AB0001101000122420007058103400005080BA7
:103AC00001020202000009040100010202000405D3
:103AD0002400200105240100020424020605240616
:103AE00001020705820308000109040200020A001E
:103AF00000000705030240000007058302400000A4
:103B0000080B030202020000090403000102020084
:103B100005052400200105240100040424020605F3
:103B200024060304070584030800010904040002B5
:103B30000A00000007050502400000070585024055
:103B4000000005010905A10105010930093109320B
:103B50000935093309341581257F950675088102D9
:103B600005010939150125083500463B0195017508
:103B700008810205091901292015002501952075E4
:103B8000018102C012010002EF020140FECA0140A1
:083B9000000101020301000025
:083B980080C6FF7F0100000060
:043BA000FD0100081B
:043BA400D90100083B
:103BA8000024F400010000001000000004000000E0
:103BB8008D1C00087006002010000C00000000009A
:103BC800FF0000009A3A00086B3A0008753A0008AE
:0C3BD800873A00088E3A0008943A000872
:04000005080003E903
:00000001FF
